:100000000C9434000C9446000C9446000C9446006A
:100010000C9446000C9446000C9446000C94460048
:100020000C9446000C9446000C9446000C94460038
:100030000C9446000C9446000C9446000C94460028
:100040000C9446000C9446000C9446000C94460018
:100050000C9446000C9446000C9446000C94460008
:100060000C9446000C94460011241FBECFEFD8E03C
:10007000DEBFCDBF21E0A0E0B1E001C01D92A13004
:10008000B207E1F70E9480000C94A2000C940000DB
:100090008BB18F608BB980E0833080F59AB1907816
:1000A0009AB99AB120E430E0082E02C03595279520
:1000B0000A94E2F7292B2AB990E09430E8F429B1A8
:1000C00048E050E0092E02C0559547950A94E2F7A2
:1000D00030E024233523232B69F429B130E0242395
:1000E0003523232BD1F3292F220F920F980F81E074
:1000F000890F08959F5FE1CF8F5FCECF8FEF089577
:1001000081E084B980E091E00E9448008D30D0F712
:1001100090E09817B8F721E025B92FEF30E742E0DB
:10012000215030404040E1F700C0000015B82FEFEB
:1001300030E742E0215030404040E1F700C000008D
:080140009F5FE7CFF894FFCFA9
:00000001FF
