S0170000416C61726D54696D65725F636F64652E7372656325
S11300000C9434000C943E000C943E000C943E007E
S11300100C943E000C943E000C943E000C943E0064
S11300200C943E000C943E000C943E000C943E0054
S11300300C943E000C943E000C943E000C943E0044
S11300400C943E000C943E000C943E000C943E0034
S11300500C943E000C943E000C943E000C943E0024
S11300600C943E000C943E0011241FBECFEFD8E048
S1130070DEBFCDBF0E94D0000C9467010C94000039
S113008088E48093B80084E08093BC001092B900A7
S1130090089584EA8093BC008091BC008823E4F72F
S11300A0089580ED8093BB0084E88093BC00809128
S11300B0BC008823E4F7089581ED8093BB0084E8B5
S11300C08093BC008091BC008823E4F7089580935A
S11300D0BB0084E88093BC008091BC008823E4F7D3
S11300E0089584E88093BC008091BC008823E4F7E1
S11300F08091BB00089584E98093BC000895CF9358
S1130100DF93EC010E9440000E9449000E945100CC
S113011080E00E94670088810E94670089810E94B4
S113012067008A810E9467008B810E9467008C812E
S11301300E9467008D810E9467008E810E94670083
S11301400E947B00DF91CF910895CF93C82F0E9426
S113015049000E9451008C2F0E9467000E947B007E
S11301600E9449000E945C000E947100C82F0E94F6
S11301707B008C2FCF910895482F4F7082958F70FC
S1130180282F30E0C901880F991F220F331F220F37
S1130190331F220F331F820F931F840F911D089565
S11301A0CF93DF93CDB7DEB727970FB6F894DEBFB2
S11301B00FBECDBF8CE08AB98BB180638BB985E566
S11301C0898388E58A8383E28B8384E08C8387E256
S11301D08D8385E08E8381E28F83CE0101960E9418
S11301E07F000F2EF7E1EF2EF12CF02D0BE310E042
S11301F0D12CC12C81E00E94A500B82E82E00E947F
S1130200A500982E8B2D0E94BC005C01892D0E94B4
S1130210BC00AC0121E00A151B0509F020E091E0C7
S1130220E416F50609F090E09223292F30E08C2D96
S113023090E08095909582239323892B21F08BB1B4
S113024084608BB903C08BB18B7F8BB989B19BB1AF
S113025084FD07C092FF05C08BB18B7F8BB9CC2482
S1130260C39489B19BB185FD16C092FF14C08BB1B4
S113027088608BB92FEF89E698E121508040904047
S1130280E1F700C000008BB1877F8BB98BB18B7F06
S11302908BB9DD24D394DD2009F4ACCF0B331105E5
S11302A051F427E1E216F10449F08FEFE81AF80A55
S11302B000E010E007C00F5F1F4F04C0E12CF12CD9
S11302C000E010E08BB180628BB9D12C93CFF8940D
S10502D0FFCF5A
S9030000FC
