S0170000416C61726D54696D65725F636F64652E7372656325
S11300000C9434000C9446000C9446000C94460066
S11300100C9446000C9446000C9446000C94460044
S11300200C9446000C9446000C9446000C94460034
S11300300C9446000C9446000C9446000C94460024
S11300400C9446000C9446000C9446000C94460014
S11300500C9446000C9446000C9446000C94460004
S11300600C9446000C94460011241FBECFEFD8E038
S1130070DEBFCDBF21E0A0E0B1E001C01D92A330FE
S1130080B207E1F70E94F3000C9495010C94000070
S113009088E48093B80084E08093BC001092B90097
S11300A0089584EA8093BC008091BC008823E4F71F
S11300B0089580ED8093BB0084E88093BC00809118
S11300C0BC008823E4F7089581ED8093BB0084E8A5
S11300D08093BC008091BC008823E4F7089560936A
S11300E0BB0084E88093BC008091BC008823E4F7C3
S11300F0089584E88093BC008091BC008823E4F7D1
S11301008091BB00089584E98093BC0008950F9307
S11301101F93CF93DF938C01EB010E944800C80129
S11301200E945100C8010E94590060E0C8010E9469
S11301306F006881C8010E946F006981C8010E9434
S11301406F006A81C8010E946F006B81C8010E9420
S11301506F006C81C8010E946F006D81C8010E940C
S11301606F006E81C8010E946F00C8010E94830065
S1130170DF91CF911F910F9108951F93CF93DF9338
S1130180EC01162F0E945100CE010E945900612FEC
S1130190CE010E946F00CE010E948300CE010E9416
S11301A05100CE010E946400CE010E947900182FF4
S11301B0CE010E948300812FDF91CF911F9108957A
S11301C0262F2F7062956F7070E0CB01880F991FF6
S11301D0660F771F660F771F660F771F860F971FAF
S11301E0820F911D0895CF93DF93CDB7DEB7279784
S11301F00FB6F894DEBF0FBECDBF8CE08AB98BB1C9
S113020080638BB985E5898380E38A8381E18B836D
S113021082E08C8381E08D8386E08E8381E28F830C
S1130220BE016F5F7F4F80E091E00E9487000F2E38
S1130230FBE0EF2EF12CF02D0FE110E0D12CC12CBE
S113024061E080E091E00E94BD00B82E62E080E0B1
S113025091E00E94BD00982E6B2D80E091E00E94F9
S1130260E0005C01692D80E091E00E94E000AC01B7
S113027021E00A151B0509F020E091E0E416F506DB
S113028009F090E09223292F30E08C2D90E08095A6
S1130290909582239323892B21F08BB184608BB9B1
S11302A003C08BB18B7F8BB989B19BB184FD07C02F
S11302B092FF05C08BB18B7F8BB9CC24C39489B1D9
S11302C09BB185FD16C092FF14C08BB188608BB9B9
S11302D02FEF89E698E1215080409040E1F700C07B
S11302E000008BB1877F8BB98BB18B7F8BB9DD24F9
S11302F0D394DD2009F4A4CF0B33110551F427E185
S1130300E216F10449F08FEFE81AF80A00E010E071
S113031007C00F5F1F4F04C0E12CF12C00E010E078
S11103208BB180628BB9D12C8BCFF894FFCFB8
S9030000FC
