S0170000416C61726D54696D65725F636F64652E7372656325
S11300000C9434000C943E000C943E000C943E007E
S11300100C943E000C943E000C943E000C943E0064
S11300200C943E000C943E000C943E000C943E0054
S11300300C943E000C943E000C943E000C943E0044
S11300400C943E000C943E000C943E000C943E0034
S11300500C943E000C943E000C943E000C943E0024
S11300600C943E000C943E0011241FBECFEFD8E048
S1130070DEBFCDBF0E94E7000C9456010C94000033
S113008088E48093B80084E08093BC001092B900A7
S1130090089584EA8093BC008091BC008823E4F72F
S11300A08091B90080FF03C080E285B9089585B1CD
S11300B0816085B9089580ED8093BB0084E88093C6
S11300C0BC008091BC008823E4F78091B900887F4C
S11300D0883119F080E285B9089585B1826085B9C7
S11300E0089581ED8093BB0084E88093BC008091E7
S11300F0BC008823E4F78091B900887F803419F02C
S113010080E285B9089585B1886085B908958093A2
S1130110BB0084E88093BC008091BC008823E4F792
S11301208091B900887F883219F080E285B90895FA
S113013085B1846085B9089584E88093BC0080917A
S1130140BC008823E4F78091BB00089584E9809380
S1130150BC000895CF93DF93EC010E9440000E94FD
S113016049000E945B0080E00E94870088810E9411
S1130170870089810E9487008A810E9487008B8181
S11301800E9487008C810E9487008D810E948700D5
S11301908E810E9487000E94A600DF91CF9108956E
S11301A0CF93C82F0E9449000E945B008C2F0E94AD
S11301B087000E94A6000E9449000E9471000E94CC
S11301C09C00C82F0E94A6008C2FCF910895CF9336
S11301D0DF93CDB7DEB727970FB6F894DEBF0FBE17
S11301E0CDBF8CE08AB98BB180638BB985E58983F7
S11301F01A8280E28B8384E08C8387E28D8385E09E
S11302008E8381E28F83CE0101960E94AA0011E0C1
S1130210F12C00E080E00E94D00081E00E94D00038
S1130220E82E82E00E94D00021E01E1120E091E03F
S1130230803209F090E09223292F30E0802F90E063
S11302408095909582239323892B21F08BB1846030
S11302508BB903C08BB18B7F8BB989B19BB184FD02
S113026006C092FF04C08BB18B7F8BB901E04D991E
S113027011C08BB188608BB92FEF89E698E12150CA
S113028080409040E1F700C000008BB1877F8BB9BC
S1130290FF24F394FF2009F4BDCF1F5F8BB18B7F44
S11302A08BB98BB180628BB9F12CB4CFF894FFCFAA
S9030000FC
