:100000000C9434000C943E000C943E000C943E0082
:100010000C943E000C943E000C943E000C943E0068
:100020000C943E000C943E000C943E000C943E0058
:100030000C943E000C943E000C943E000C943E0048
:100040000C943E000C943E000C943E000C943E0038
:100050000C943E000C943E000C943E000C943E0028
:100060000C943E000C943E0011241FBECFEFD8E04C
:10007000DEBFCDBF0E94BC000C942C010C9400008C
:1000800088E48093B80084E08093BC001092B900AB
:10009000089584EA8093BC008091BC008823E4F733
:1000A000089580ED8093BB0084E88093BC0080912C
:1000B000BC008823E4F7089581ED8093BB0084E8B9
:1000C0008093BC008091BC008823E4F7089580935E
:1000D000BB0084E88093BC008091BC008823E4F7D7
:1000E000089584E88093BC008091BC008823E4F7E5
:1000F0008091BB00089584E98093BC000895CF935C
:10010000DF93EC010E9440000E9449000E945100D0
:1001100080E00E94670088810E94670089810E94B8
:1001200067008A810E9467008B810E9467008C8132
:100130000E9467008D810E9467008E810E94670087
:100140000E947B00DF91CF910895CF93C82F0E942A
:1001500049000E9451008C2F0E9467000E947B0082
:100160000E9449000E945C000E947100C82F0E94FA
:100170007B008C2FCF910895CF93DF93CDB7DEB75F
:1001800027970FB6F894DEBF0FBECDBF8CE08AB9BB
:100190008BB180638BB985E589831A8280E28B837A
:1001A00084E08C8387E28D8385E08E8381E28F8378
:1001B000CE0101960E947F0011E0F12C00E081E069
:1001C0000E94A500E82E82E00E94A50021E01E11F9
:1001D00020E091E0803209F090E09223292F30E076
:1001E000802F90E08095909582239323892B21F096
:1001F0008BB184608BB903C08BB18B7F8BB989B114
:100200009BB184FD06C092FF04C08BB18B7F8BB97C
:1002100001E089B19BB185FD16C092FF14C08BB17E
:1002200088608BB92FEF89E698E12150804090409B
:10023000E1F700C000008BB1877F8BB98BB18B7F5A
:100240008BB9FF24F394FF2009F4B9CF1F5F8BB162
:0C02500080628BB9F12CB3CFF894FFCF83
:00000001FF
