:100000000C9434000C9451000C9451000C94510049
:100010000C9451000C9451000C9451000C9451001C
:100020000C9451000C9451000C9451000C9451000C
:100030000C9451000C9451000C9451000C945100FC
:100040000C9451000C9451000C9451000C945100EC
:100050000C9451000C9451000C9451000C945100DC
:100060000C9451000C94510011241FBECFEFD8E026
:10007000DEBFCDBF18E0A0E0B1E0E6EDFCE102C0DC
:1000800005900D92AC32B107D9F728E0ACE2B8E0A8
:1000900001C01D92A738B207E1F70E9451090C94E4
:1000A000690E0C9400009B016A307105ECF0CB01E5
:1000B0006AE070E00E94410EAB01405D5F4FCB01F2
:1000C000880F991F660F771F660F771F660F771FC0
:1000D000680F791FC9010E94410EC096E6EAF7E059
:1000E00040838183CF010895205D3F4F2093AA076D
:1000F00089EA97E00895CF92DF92EF92FF920F93F3
:100100001F93CF93DF938C0160E087E398E00E9418
:1001100061047C0161E087E398E00E9461046C0166
:1001200062E087E398E00E946104BC01C8010E947C
:100130005300FC012081CCEAD7E02C8381818D83A0
:10014000B601C8010E945300FC0120812F838181E8
:100150008887B701C8010E945300FC0120812A87CB
:1001600081818B879E0140E060E081E398E00E94FE
:10017000AA052EEB37E040E061E081E398E00E94C1
:10018000AA05FFEF29E688E1F15020408040E1F721
:1001900000C00000329BB8CFDF91CF911F910F912B
:1001A000FF90EF90DF90CF900895AF92BF92CF92E3
:1001B000DF92EF92FF920F931F93CF93DF93CDB710
:1001C000DEB763970FB6F894DEBF0FBECDBF8CE0ED
:1001D000EAE9F7E0DE01189601900D928A95E1F7C1
:1001E00081E398E00E94970523EC37E044E060E06B
:1001F00081E398E00E94AA052FEF84E39CE0215060
:1002000080409040E1F700C0000000E0E12CF12CBC
:10021000A12CB12CC12CD12C073008F01CC180E3DB
:1002200098E00E94A504182F813099F4E02FF0E0A7
:10023000EE0FFF1F81E090E08C0F9D1FE80FF91F6C
:1002400047812CEC37E060E081E398E00E94AA054A
:10025000C1C0823099F4E02FF0E0EE0FFF1F81E083
:1002600090E08C0F9D1FE80FF91F47812EEC37E0BF
:1002700060E081E398E00E94AA05ACC0833099F465
:10028000E02FF0E0EE0FFF1F81E090E08C0F9D1F4C
:10029000E80FF91F478120ED37E060E081E398E047
:1002A0000E94AA0597C0843099F4E02FF0E0EE0F89
:1002B000FF1F81E090E08C0F9D1FE80FF91F478121
:1002C00022ED37E060E081E398E00E94AA0582C059
:1002D000853099F4E02FF0E0EE0FFF1F81E090E011
:1002E0008C0F9D1FE80FF91F478124ED37E060E078
:1002F00081E398E00E94AA056DC0863099F4E02F52
:10030000F0E0EE0FFF1F81E090E08C0F9D1FE80FE3
:10031000F91F478126ED37E060E081E398E00E9415
:10032000AA0558C0873099F4E02FF0E0EE0FFF1FC8
:1003300081E090E08C0F9D1FE80FF91F478128EDA9
:1003400037E060E081E398E00E94AA0543C088306E
:1003500099F4E02FF0E0EE0FFF1F81E090E08C0FAA
:100360009D1FE80FF91F47812AED37E060E081E328
:1003700098E00E94AA052EC0893099F4E02FF0E0A1
:10038000EE0FFF1F81E090E08C0F9D1FE80FF91F1B
:1003900047812CED37E060E081E398E00E94AA05F8
:1003A00019C08B30A1F4E02FF0E0EE0FFF1F81E0C9
:1003B00090E08C0F9D1FE80FF91F47812AEC37E072
:1003C00060E081E398E00E94AA0510E003C0329B40
:1003D00026CF08E001110FC0812F90E09C01220F71
:1003E000331F880F991F880F991F880F991F820F3D
:1003F000931FE80EF91E013011F4E10EF11C0230DA
:1004000079F4812F90E09C01220F331F880F991FF0
:10041000880F991F880F991F820F931FA80EB91E6E
:10042000033011F4A10EB11C043079F4812F90E057
:100430009C01220F331F880F991F880F991F880F67
:10044000991F820F931FC80ED91E053011F4C10EDB
:10045000D11C0F5FE1CEB70187E398E00E948704CB
:10046000182FB50187E398E00E948704082FB60192
:1004700087E398E00E94870489830A831B8387E0CF
:100480008C8380E28D8386E08E8381E28F8381E39B
:1004900098E00E949705BE016F5F7F4F87E398E069
:1004A0000E9418042EED37E040E060E081E398E020
:1004B0000E94AA059FEF24E38CE0915020408040E9
:1004C000E1F700C0000081E398E00E949705639681
:1004D0000FB6F894DEBF0FBECDBFDF91CF911F9155
:1004E0000F91FF90EF90DF90CF90BF90AF90089565
:1004F000CF92DF92EF92FF920F931F93CF93DF93F0
:10050000CDB7DEB72C970FB6F894DEBF0FBECDBFC8
:10051000FE0131968CE0DF011D928A95E9F786E0B5
:1005200090E09A83898387E090E09C838B8389E0C5
:1005300090E09E838D838AE090E098878F8381E3AB
:1005400098E00E94970526EC37E046E060E081E302
:1005500098E00E94AA05BFEF21EE84E0B150204050
:100560008040E1F700C0000000E0E12CF12CC12C3C
:10057000D12C053008F007C180E398E00E94A50463
:10058000182F813099F4E02FF0E0EE0FFF1FA1E06B
:10059000B0E0AC0FBD1FEA0FFB1F40812CEC37E031
:1005A00060E081E398E00E94AA05C1C0823099F41E
:1005B000E02FF0E0EE0FFF1F81E090E08C0F9D1F19
:1005C000E80FF91F40812EEC37E060E081E398E00E
:1005D0000E94AA05ACC0833099F4E02FF0E0EE0F42
:1005E000FF1FA1E0B0E0AC0FBD1FEA0FFB1F408171
:1005F00020ED37E060E081E398E00E94AA0597C013
:10060000843099F4E02FF0E0EE0FFF1F81E090E0DE
:100610008C0F9D1FE80FF91F408122ED37E060E04D
:1006200081E398E00E94AA0582C0853099F4E02F0A
:10063000F0E0EE0FFF1FA1E0B0E0AC0FBD1FEA0F2E
:10064000FB1F408124ED37E060E081E398E00E94E9
:10065000AA056DC0863099F4E02FF0E0EE0FFF1F81
:1006600081E090E08C0F9D1FE80FF91F408126ED7F
:1006700037E060E081E398E00E94AA0558C0873027
:1006800099F4E02FF0E0EE0FFF1FA1E0B0E0AC0F17
:10069000BD1FEA0FFB1F408128ED37E060E081E3DA
:1006A00098E00E94AA0543C0883099F4E02FF0E05A
:1006B000EE0FFF1F81E090E08C0F9D1FE80FF91FE8
:1006C00040812AED37E060E081E398E00E94AA05CE
:1006D0002EC0893099F4E02FF0E0EE0FFF1FA1E06B
:1006E000B0E0AC0FBD1FEA0FFB1F40812CED37E0DF
:1006F00060E081E398E00E94AA0519C08B30A1F464
:10070000E02FF0E0EE0FFF1F81E090E08C0F9D1FC7
:10071000E80FF91F40812AEC37E060E081E398E0C0
:100720000E94AA0510E003C0329B26CF08E0011109
:100730000FC0812F90E09C01220F331F880F991F5B
:10074000880F991F880F991F820F931FE80EF91EBB
:10075000013011F4E10EF11C023079F4812F90E0A8
:100760009C01220F331F880F991F880F991F880F34
:10077000991F820F931FC80ED91E033011F4C10EAA
:10078000D11C0F5FF6CEECE2F8E0F182E082D3827A
:10079000C282CF012C960FB6F894DEBF0FBECDBF3C
:1007A000DF91CF911F910F91FF90EF90DF90CF904D
:1007B000089588E48093B80084E08093BC00109290
:1007C000B900089584EA8093BC008091BC0088231E
:1007D000E4F7089580ED8093BB0084E88093BC002B
:1007E0008091BC008823E4F7089581ED8093BB00DD
:1007F00084E88093BC008091BC008823E4F70895CE
:100800006093BB0084E88093BC008091BC00882387
:10081000E4F7089584E88093BC008091BC008823AD
:10082000E4F78091BB00089584E98093BC000895AB
:100830000F931F93CF93DF938C01EB010E94D90399
:10084000C8010E94E203C8010E94EA0360E0C801F7
:100850000E9400046881C8010E9400046981C801E7
:100860000E9400046A81C8010E9400046B81C801D3
:100870000E9400046C81C8010E9400046D81C801BF
:100880000E9400046E81C8010E940004C8010E94F9
:100890001404DF91CF911F910F910895262F2F708F
:1008A00062956F7070E0CB01880F991F660F771FFC
:1008B000660F771F660F771F860F971F820F911D98
:1008C00008951F93CF93DF93EC01162F0E94E2034C
:1008D000CE010E94EA03612FCE010E940004CE01E6
:1008E0000E941404CE010E94E203CE010E94F5038F
:1008F000CE010E940A04182FCE010E941404612F19
:10090000CE010E944E04DF91CF911F9108959B016B
:100910006A307105C4F0CB016AE070E00E94410EBC
:10092000462F4295407F862F972F880F991FBC0135
:10093000660F771F660F771F680F791FC9010E9426
:10094000410E842B0895862F08958BB18F608BB94B
:1009500080E0833080F59AB190789AB99AB120E41A
:1009600030E0082E02C0359527950A94E2F7292B2E
:100970002AB990E09430E8F429B148E050E0092E1B
:1009800002C0559547950A94E2F730E024233523B9
:10099000232B69F429B130E024233523232BD1F311
:1009A000292F220F920F980F81E0890F08959F5FE2
:1009B000E1CF8F5FCECF8FEF089525B1962F907F37
:1009C000892F90E09595879595958795922F937CA3
:1009D000892B85B985B18E7F85B985B1826085B94E
:1009E00085E08A95F1F7000085B18D7F85B98FE8A4
:1009F00091E00197F1F700C0000085B16F7070E0E1
:100A0000660F771F660F771F837C682B65B985B1EA
:100A1000826085B995E09A95F1F7000085B18D7FE8
:100A200085B98FE99FE00197F1F700C000000895B4
:100A3000CF93DF93EC018FEF84B98FE39CE90197AB
:100A4000F1F700C0000062E0CE010E94DD0468E220
:100A5000CE010E94DD046CE0CE010E94DD0466E060
:100A6000CE010E94DD0461E0CE010E94DD048FE929
:100A70009FE00197F1F700C00000DF91CF9108954A
:100A800025B1962F907F892F90E095958795959524
:100A90008795922F937C892B85B985B1816085B923
:100AA00085B1826085B982E08A95F1F700C085B191
:100AB0008D7F85B98FE891E00197F1F700C00000C4
:100AC00085B16F7070E0660F771F660F771F837CAC
:100AD000682B65B985B1826085B992E09A95F1F786
:100AE00000C085B18D7F85B98FE99FE00197F1F74F
:100AF00000C000000895EF92FF920F931F93CF93D1
:100B0000DF937C018B01C0E0D0E0F801EC0FFD1F0A
:100B10006081662329F0C7010E9440052196F5CF28
:100B2000DF91CF911F910F91FF90EF900895CF9398
:100B3000DF93EC0161E00E94DD048FE99FE0019703
:100B4000F1F700C0000060E8CE010E94DD04DF91F3
:100B5000CF9108950F931F93CF93DF938C01E901F9
:100B6000611108C0403130F44F70642F60680E94FA
:100B7000DD040AC0613041F4403130F44F70642F1D
:100B8000606CC8010E94DD04BE01C8010E947B05A3
:100B9000DF91CF911F910F910895CF93DF934091F3
:100BA0006C0850916D0841305105B9F58CE798E01B
:100BB0000E94970560916A0870916B08660F771F15
:100BC00062957295707F7627607F762760517D4FA2
:100BD0008CE798E00E947B0560EC8CE798E00E942F
:100BE000DD0460916A0870916B08660F771F62954B
:100BF0007295707F7627607F762760507D4F8CE7F7
:100C000098E00E947B052FEF89E698E12150804013
:100C10009040E1F700C0000090C121E04230510552
:100C200009F020E080916A0890916B0831E000970C
:100C300009F030E0332309F46FC0222309F46CC0BB
:100C40008CE798E00E9497058AE798E00E94780276
:100C5000EC01E0913C08F0913D0888819981EE0F0C
:100C6000FF1FEE0FFF1FE25CF74F918380838A81A5
:100C70009B8193838283688179818AE798E00E94CF
:100C80005300DC01E0913C08F0913D082C91AF014C
:100C9000440F551F42955295507F5427407F54274B
:100CA000CA01805B9D4FFC01278311962C911197FF
:100CB00020878C91FA01E055FE4F808311968C912C
:100CC00081836A817B818AE798E00E945300DC017E
:100CD00020913C0830913D088C91F901EE0FFF1FE7
:100CE000E295F295F07FFE27E07FFE27EF01C05BE3
:100CF000DD4F8A8711968C9111978B878C91E055E7
:100D0000FE4F838311968C9184832F5F3F4F3093E6
:100D10003D0820933C0811C131E08130910509F074
:100D200030E02223C9F13323B9F18CE798E00E9427
:100D300097056091680870916908660F771F629542
:100D40007295707F7627607F7627605B7D4F8CE79A
:100D500098E00E947B0560EC8CE798E00E94DD043F
:100D60006091680870916908660F771F62957295A7
:100D7000707F7627607F7627605A7D4F8CE798E0FA
:100D80000E947B05FFEF29E688E1F150204080407A
:100D9000E1F700C00000D1C061E04330510509F027
:100DA00060E0662309F13323F9F08CE798E00E94B4
:100DB000970567EE77E08CE798E00E947B0560EC92
:100DC0008CE798E00E94DD0469EF77E08CE798E01B
:100DD0000E947B059FEFE9E6F8E19150E040F0408A
:100DE000E1F700C00000A9C031E08230910509F0B0
:100DF00030E0332339F0222329F08AE798E00E947B
:100E0000D5009BC031E08330910509F030E03323F9
:100E100009F46DC0222309F46AC08CE798E00E94AF
:100E200097056091660870916708660F771F629555
:100E30007295707F7627607F7627605F7E4F8CE7A4
:100E400098E00E947B0560EC8CE798E00E94DD044E
:100E50006091660870916708660F771F62957295BA
:100E6000707F7627607F7627605E7E4F8CE798E004
:100E70000E947B052FEF89E698E121508040904049
:100E8000E1F700C000008091660890916708009724
:100E900039F460E070E08EE698E00E94C00B4DC02F
:100EA0008130910539F461E070E08EE698E00E94AF
:100EB000C00B43C08230910539F462E070E08EE6E9
:100EC00098E00E94C00B39C08330910539F463E08B
:100ED00070E08EE698E00E94C00B2FC0049769F581
:100EE00064E070E08EE698E00E94C00B26C031E01E
:100EF000049709F030E0332301F12223F1F08CE76D
:100F000098E00E94970560E071E08CE798E00E940D
:100F10007B0560EC8CE798E00E94DD0460E071E006
:100F20008CE798E00E947B05EFEFF9E628E1E150BD
:100F3000F0402040E1F700C00000DF91CF9108951C
:100F4000309B8AC040916C0850916D0821E041307F
:100F5000510509F020E080916A0890916B0831E01A
:100F6000009709F030E0332359F0222349F084E060
:100F700090E090936B0880936A080E94CD050895D5
:100F800031E0009709F430E0332351F0222341F09F
:100F9000019790936B0880936A080E94CD0508958D
:100FA00031E04230510509F030E021E08130910517
:100FB00009F020E02323409168085091690861E01E
:100FC0004115510509F060E0222359F0662349F0EC
:100FD00084E090E090936908809368080E94CD05B2
:100FE000089561E04115510509F460E0222359F0AC
:100FF000662349F0415051095093690840936808AD
:101000000E94CD05089521E0039709F020E03223E6
:10101000809166089091670821E0009709F020E030
:10102000332359F0222349F084E090E0909367083D
:10103000809366080E94CD05089521E0009709F489
:1010400020E0332349F0222339F001979093670879
:10105000809366080E94CD050895319B8EC0409113
:101060006C0850916D0821E04130510509F020E0F5
:1010700080916A0890916B0831E08430910509F005
:1010800030E0332349F0222339F010926B0810929C
:101090006A080E94CD05089531E08430910509F475
:1010A00030E03323A1F0222391F08FE19EE40197F9
:1010B000F1F700C0000080916A0890916B080196DA
:1010C00090936B0880936A080E94CD05089531E0E3
:1010D0004230510509F030E021E08130910509F0FE
:1010E00020E02323609168087091690841E0643032
:1010F000710509F040E0222349F0442339F01092B1
:101100006908109268080E94CD050895409166080C
:1011100050916708E1E04430510509F4E0E02223F2
:1011200059F0EE2349F06F5F7F4F70936908609329
:1011300068080E94CD05089521E0039709F020E09A
:10114000322381E04430510509F080E0332349F037
:10115000882339F010926708109266080E94CD0526
:101160000895EE2351F0332341F04F5F5F4F5093CA
:101170006708409366080E94CD050895329B15C00C
:1011800080916C0890916D088330910539F410922C
:101190006D0810926C080E94CD05089501969093F9
:1011A0006D0880936C080E94CD050895339B14C090
:1011B00080916C0890916D08009739F410926D0839
:1011C00010926C080E94CD050895019790936D08C8
:1011D00080936C080E94CD050895CF92DF92EF9224
:1011E000FF920F931F93CF93DF93C12CD12C80914B
:1011F0003C0890913D08C816D9060CF049C0F6018C
:10120000EE0FFF1FEE0FFF1FE25CF74F0081118111
:10121000E280F38062E082E898E00E946104EC01E1
:1012200061E082E898E00E9461049C0191E00C1763
:101230001D0709F090E0992321F191E0E216F306F1
:1012400009F090E09923E9F08CE798E00E94970577
:101250002AE038E040E060E08CE798E00E94AA05D0
:101260002BE138E040E061E08CE798E00E94AA05BD
:1012700060916608709167088EE698E00E94C00B46
:10128000C9CF8BB18F778BB98FEFC81AD80AAFCF80
:10129000DF91CF911F910F91FF90EF90DF90CF9052
:1012A0000895CF93DF93CDB7DEB727970FB6F894A5
:1012B000DEBF0FBECDBF80E88AB919821A8282E1F3
:1012C0008B8385E08C8391E39D838E8381E28F8382
:1012D000BE016F5F7F4F82E898E00E9418048CE7A0
:1012E00098E00E9418050E94ED0880916C0890918A
:1012F0006D08892B21F48AE798E00E947B000E9408
:10130000BE080E94A0070E942D080E94D608EBCFBD
:101310004F925F926F927F928F929F92AF92BF9205
:10132000CF92DF92EF92FF920F931F93CF93DF93B1
:1013300000D000D0CDB7DEB76A017B01480159016A
:1013400020E030E0A901C701B6010E94700C88239B
:1013500009F4B0C0A701960160E070E080E89FE367
:101360000E94750C20E030E04AE754E40E94D40D5E
:101370006B017C019B01AC01C501B4010E94750C9D
:101380000E94E70C2B013C0120E030E040E05FE3ED
:10139000C701B6010E94D40D69837A838B839C8335
:1013A0008AB180688AB9812C912C540184149504E7
:1013B000A604B7040CF0B8C020E030E04AEF54E4D3
:1013C00069817A818B819C810E94D40D6B017C01A3
:1013D00020E030E040E85FE30E94700C88232CF1AD
:1013E00020E03FEF4FE757E4C701B6010E94CF0D61
:1013F0001816B4F420E030E040E251E469817A81CB
:101400008B819C810E94D40D0E94EE0C61157105A8
:1014100089F088EC90E00197F1F761507109F6CFFF
:10142000C701B6010E94EE0C02C061E070E0CB0182
:101430000197F1F78BB180688BB920E030E040E88C
:101440005FE3C701B6010E94700C88232CF120E0F5
:101450003FEF4FE757E4C701B6010E94CF0D1816C2
:10146000B4F420E030E040E251E469817A818B817C
:101470009C810E94D40D0E94EE0C6115710589F0CB
:1014800088EC90E00197F1F761507109F6CFC70140
:10149000B6010E94EE0C02C061E070E0CB01019742
:1014A000F1F78BB18F778BB98FEF881A980AA80A5A
:1014B000B80A7CCF20E030E04AEF54E4C501B40123
:1014C0000E94D40D6B017C0120E030E040E85FE336
:1014D0000E94700C88231CF120E03FEF4FE757E497
:1014E000C701B6010E94CF0D1816A4F420E030E029
:1014F00040E251E4C501B4010E94D40D0E94EE0CFB
:101500006115710589F088EC90E00197F1F7615061
:101510007109F6CFC701B6010E94EE0C02C061E06E
:1015200070E0CB010197F1F70F900F900F900F90A3
:10153000DF91CF911F910F91FF90EF90DF90CF90AF
:10154000BF90AF909F908F907F906F905F904F90E3
:1015500008952F923F924F925F926F927F928F9257
:101560009F92AF92BF92CF92DF92EF92FF920F9332
:101570001F93CF93DF93CDB7DEB729970FB6F894BB
:10158000DEBF0FBECDBF9F838E832B011A013901B1
:1015900080E090E099878887E885F985E615F7056A
:1015A0000CF0D5C07F01EE0CFF1C6101CE0CDF1CDE
:1015B000F60160817181072E000C880B990B0E9447
:1015C0001F0D4B015C01F201EE0DFF1D6081718169
:1015D000072E000C880B990B0E941F0DAB01BC015C
:1015E000950184018E819F810E948809F6016081A6
:1015F0007181072E000C880B990B0E941F0D6B0147
:101600007C012BEA3AEA4AE250E40E94D40D4B01F5
:101610005C01A7019601C701B6010E94040C698311
:101620007A838B839C8320E030E040E85FE3C50150
:10163000B4010E94700C88230CF46AC020E03FEFD4
:101640004FE757E469817A818B819C810E94CF0D9D
:1016500018160CF043C020E030E04AE754E4C7011C
:10166000B6010E94750C4B015C0120E030E04AEFAE
:1016700054E40E94D40D6B017C0120E030E040E88E
:101680005FE30E94700C88231CF120E03FEF4FE7DE
:1016900057E4C701B6010E94CF0D1816A4F420E04C
:1016A00030E040E251E4C501B4010E94D40D0E9433
:1016B000EE0C6115710579F188EC90E00197F1F776
:1016C00061507109F6CFC701B6010E94EE0C02C04D
:1016D00061E070E0CB010197F1F71DC020E030E040
:1016E0004FE753E4C501B4010E94CF0D181654F41E
:1016F00069817A818B819C810E94EE0CCB010197DC
:10170000F1F70CC0C501B4010E94EE0C6D8303C05B
:1017100091E09D8300C08D818A95F1F7329908C0D0
:10172000309908C0319908C0339B08C081E007C0D8
:1017300081E005C081E003C081E001C080E081114B
:1017400006C08885998501969987888725CF29962F
:101750000FB6F894DEBF0FBECDBFDF91CF911F91C2
:101760000F91FF90EF90DF90CF90BF90AF909F9040
:101770008F907F906F905F904F903F902F90089543
:101780006115710559F4209198033091990342E550
:1017900057E066E777E00E94A90A08956130710575
:1017A00059F4209196033091970342E256E06AEB98
:1017B00076E00E94A90A08956230710559F42091DB
:1017C0009403309195034AE855E066ED75E00E9478
:1017D000A90A08956330710559F42091920330915C
:1017E00093034AEF53E062EC74E00E94A90A089563
:1017F00020919003309191034AE953E06AEC73E041
:101800000E94A90A08955058BB27AA270E941B0CC2
:101810000C94950D0E94870D38F00E948E0D20F0DB
:1018200039F49F3F19F426F40C94840D0EF4E095DE
:10183000E7FB0C947E0DE92F0E94A60D58F3BA1712
:10184000620773078407950720F079F4A6F50C94D6
:10185000C80D0EF4E0950B2EBA2FA02D0B01B90187
:1018600090010C01CA01A0011124FF27591B99F016
:10187000593F50F4503E68F11A16F040A22F232F22
:10188000342F4427585FF3CF469537952795A79572
:10189000F0405395C9F77EF41F16BA0B620B730B19
:1018A000840BBAF09150A1F0FF0FBB1F661F771F8A
:1018B000881FC2F70EC0BA0F621F731F841F48F43F
:1018C000879577956795B795F7959E3F08F0B0CFC8
:1018D0009395880F08F09927EE0F979587950895AF
:1018E0000E945A0D08F481E008950E94890C0C941E
:1018F000950D0E948E0D58F00E94870D40F029F43E
:101900005F3F29F00C947E0D51110C94C90D0C947D
:10191000840D0E94A60D68F39923B1F3552391F32A
:10192000951B550BBB27AA2762177307840738F04E
:101930009F5F5F4F220F331F441FAA1FA9F335D0AB
:101940000E2E3AF0E0E832D091505040E695001C5F
:10195000CAF72BD0FE2F29D0660F771F881FBB1F19
:10196000261737074807AB07B0E809F0BB0B802DF7
:10197000BF01FF2793585F4F3AF09E3F510578F023
:101980000C947E0D0C94C90D5F3FE4F3983ED4F3A4
:10199000869577956795B795F7959F5FC9F7880FF7
:1019A000911D9695879597F90895E1E0660F771F49
:1019B000881FBB1F621773078407BA0720F0621BDA
:1019C000730B840BBA0BEE1F88F7E09508950E9405
:1019D000EE0C6894B1110C94C90D08950E94AE0DDF
:1019E00088F09F5798F0B92F9927B751B0F0E1F0E0
:1019F000660F771F881F991F1AF0BA95C9F714C090
:101A0000B13091F00E94C80DB1E008950C94C80D5A
:101A1000672F782F8827B85F39F0B93FCCF38695C8
:101A200077956795B395D9F73EF490958095709525
:101A300061957F4F8F4F9F4F0895E89409C097FBA2
:101A40003EF490958095709561957F4F8F4F9F4F95
:101A50009923A9F0F92F96E9BB279395F6958795D9
:101A600077956795B795F111F8CFFAF4BB0F11F49C
:101A700060FF1BC06F5F7F4F8F4F9F4F16C0882343
:101A800011F096E911C0772321F09EE8872F762F79
:101A900005C0662371F096E8862F70E060E02AF0BA
:101AA0009A95660F771F881FDAF7880F96958795A6
:101AB00097F90895990F0008550FAA0BE0E8FEEF7B
:101AC00016161706E807F907C0F012161306E40702
:101AD000F50798F0621B730B840B950B39F40A26FB
:101AE00061F0232B242B252B21F408950A2609F4D9
:101AF000A140A6958FEF811D811D089597F99F67DD
:101B000080E870E060E008959FEF80EC0895002485
:101B10000A941616170618060906089500240A9452
:101B200012161306140605060895092E0394000CD8
:101B300011F4882352F0BB0F40F4BF2B11F460FF67
:101B400004C06F5F7F4F8F4F9F4F089557FD905890
:101B5000440F551F59F05F3F71F04795880F97FB71
:101B6000991F61F09F3F79F087950895121613062B
:101B70001406551FF2CF4695F1DF08C0161617065A
:101B80001806991FF1CF869571056105089408958F
:101B9000E894BB2766277727CB0197F908950E9421
:101BA0005A0D08F48FEF08950E94E70D0C94950DDF
:101BB0000E94870D38F00E948E0D20F0952311F0C1
:101BC0000C947E0D0C94840D11240C94C90D0E946C
:101BD000A60D70F3959FC1F3950F50E0551F629FBE
:101BE000F001729FBB27F00DB11D639FAA27F00D76
:101BF000B11DAA1F649F6627B00DA11D661F829F9D
:101C00002227B00DA11D621F739FB00DA11D621F81
:101C1000839FA00D611D221F749F3327A00D611D9E
:101C2000231F849F600D211D822F762F6A2F112480
:101C30009F5750409AF0F1F088234AF0EE0FFF1FB3
:101C4000BB1F661F771F881F91505040A9F79E3F0A
:101C5000510580F00C947E0D0C94C90D5F3FE4F3A8
:101C6000983ED4F3869577956795B795F795E79560
:101C70009F5FC1F7FE2B880F911D9695879597F969
:101C8000089597FB072E16F4009407D077FD09D02E
:101C90000E94550E07FC05D03EF4909581959F4F0C
:101CA0000895709561957F4F0895AA1BBB1B51E164
:101CB00007C0AA1FBB1FA617B70710F0A61BB70BBC
:101CC000881F991F5A95A9F780959095BC01CD0161
:061CD0000895F894FFCF17
:101CD600726573657420616C6C0000000000000082
:101CE600474F540000000000000000000000000004
:101CF6004F4B2020202020202020204241434B0013
:101D060050495241544553000000000000000000B5
:101D16004F4B2020202020202020204241434B00F2
:101D26005354415257415253000000000000000036
:101D36004F4B2020202020202020204241434B00D2
:101D4600415354524F4E4F4D494100000000000090
:101D56004F4B2020202020202020204241434B00B2
:101D660054414B4520494E204D45000000000000DF
:101D76004F4B2020202020202020204241434B0092
:101D86005F5F3A5F5F000000000000000000000097
:101D96004F4B2020202020202044454C4554450010
:101DA6005F5F3A5F5F000000000000000000000077
:101DB6004F4B2020202020202044454C45544500F0
:101DC6005F5F3A5F5F000000000000000000000057
:101DD6004F4B2020202020202044454C45544500D0
:101DE6005F5F3A5F5F000000000000000000000037
:101DF6004F4B2020202020202044454C45544500B0
:101E06005F5F3A5F5F000000000000000000000016
:101E16004F4B2020202020202044454C455445008F
:101E2600416C61726D31205F5F3A5F5F00000000B8
:101E36004348414E474520202020204241434B0045
:101E4600416C61726D32205F5F3A5F5F0000000097
:101E56004348414E474520202020204241434B0025
:101E6600416C61726D33205F5F3A5F5F0000000076
:101E76004348414E474520202020204241434B0005
:101E8600416C61726D34205F5F3A5F5F0000000055
:101E96004348414E474520202020204241434B00E5
:101EA600416C61726D35205F5F3A5F5F0000000034
:101EB6004348414E474520202020204241434B00C5
:101EC6004E657720416C61726D00000000000000D5
:101ED6004F4B2020202020202020204241434B0031
:101EE600416C6C20416C61726D7300000000000053
:101EF6004F4B2020202020202020204241434B0011
:101F06005365742054696D650000000000000000F0
:101F16004F4B2020202020202020204241434B00F0
:101F2600416C61726D20546F6E6500000000000008
:101F36004F4B2020202020202020204241434B00D0
:101F46005265736574000000000000000000000088
:101F56004F4B2020202020202020204241434B00B0
:101F66001800640026004C0012007D007D007D00F4
:101F7600FA00FA00FA00FA00C8007D007D007D0034
:101F86007D007D007D007D00FA00FA00FA00FA006F
:101F9600C8007D007D007D007D00E402E4024B0266
:101FA600EE01EE019302930293023F033F03700397
:101FB600DC0370037003700393024B02E402E40235
:101FC600E40293029302E4029302BB00BB00BB004F
:101FD600BB00BB00BB00BB00BB00BB00BB00BB0023
:101FE600BB00BB00BB00BB00BB00BB00BB00BB0013
:101FF600BB00BB00BB00BB00BB00BB00BB00BB0003
:10200600BB00BB00BB00BB00BB00BB00BB00BB00F2
:10201600BB00BB00BB00BB00BB00BB00BB00BB00E2
:10202600BB00BB00BB00BB00BB00BB00BB00BB00D2
:10203600BB00BB00BB00BB00BB00BB00BB00BB00C2
:10204600BB00BB00BB00BB00BB00BB00BB00BB00B2
:10205600BB00BB00BB00BB00BB00BB00BB00BB00A2
:10206600BB00BB00BB00BB00BB00BB00BB00BB0092
:10207600BB00BB00BB00BB00BB00BB00BB00BB0082
:10208600BB00BB00BB00BB00BB00BB00BB00BB0072
:10209600BB00D201D201D201D201D201D201D201BA
:1020A600D2014B024B024B024B020B020B020B02FC
:1020B6000B02BA02BA02BA02BA02100310031003E4
:1020C6001003100310031003100310031003100372
:1020D60010030B02D201B8015D01880100008801DE
:1020E6004B020B020000D2010000B8010000B8014B
:1020F600B8010B020000D201B80188010000880176
:10210600A4037003A4037003A403880100008801DC
:10211600A4037003A4037003A403880100008801CC
:102126004B020B020000D2010000B8010000B8010A
:10213600B8010B020000D201B80188010000880135
:10214600A4037003A4037003A4038801000088019C
:10215600A4037003A4037003A403F401F401F401BF
:102166005E019600F4015E0196008A02F401F40114
:10217600F401F4015E019600F4015E0196008A0204
:10218600F401F4012C019600F4014501AF007D0035
:102196007D00FA007701FA00F4014501AF007D00E9
:1021A6007D00FA00F401B801B801B8015D010B0227
:1021B600B8015D010B02B80100009302930293027D
:1021C600BA020B029F015D010B02B8010000700309
:1021D600B801B80170033F031003E402BA02E40237
:1021E6000000D2016E024B022A020B0226010B02EC
:1021F60000007D007D00FA007D007D007D007D00F1
:10220600FA007D007D007D007D00FA007D007D00E6
:102216007D007D0077017D007D007D00FA007D0058
:102226007D007D007D00FA007D007D007D007D0043
:10223600FA007D007D007D007D0077017D007D0038
:102246007D00FA007D007D007D007D00FA007D00A6
:102256007D007D007D00FA007D007D007D007D0013
:102266007D00FA007D007D007D00FA007D007D0086
:10227600FA007D00FA007D007D007D00FA007D00F9
:102286007D007D007D00770177014A018801B80154
:10229600B8010000B801EE010B020B0200000B02B0
:1022A6004B02EE01EE010000B8018801B801000002
:1022B6004A018801B801B8010000B801EE010B021D
:1022C6000B0200000B024B02EE01EE010000B8010A
:1022D6008801B80100004A018801B801B801000070
:1022E600B8010B024B024B0200004B029302BA02EA
:1022F600BA02000093024B029302B8010000B80133
:10230600EE010B020B0200004B029302B801000023
:10231600B8010B02EE01EE0100000B02B801EE015E
:10232600000020032003FA00FA0020032003FA002D
:10233600FA00E20420032003FA00FA002003200337
:10234600FA00FA00E2048801060137015D018801FE
:10235600060137015D0126015D01E900260137010D
:102366005D01E900370126010601040005000700AA
:1023760008000A000B005F5F00305F00202020206D
:1023860030303A30303A30302020202020004D4581
:102396004E550030303A30303A303000310032009D
:1023A60033003400350036003700380039005469F0
:1023B6006D652053657400202020202031363A3385
:1023C6003020202020202020004F4B2020202020BD
:1023D60020202044454C4554450020202020204103
:1023E6006C61726D2020202020200053544F502015
:0C23F6002020202020202020202020007B
:00000001FF
