S0130000616C61726D5F636C6F636B2E7372656399
S11300000C9434000C9451000C9451000C94510045
S11300100C9451000C9451000C9451000C94510018
S11300200C9451000C9451000C9451000C94510008
S11300300C9451000C9451000C9451000C945100F8
S11300400C9451000C9451000C9451000C945100E8
S11300500C9451000C9451000C9451000C945100D8
S11300600C9451000C94510011241FBECFEFD8E022
S1130070DEBFCDBF17E0A0E0B1E0EEE0F8E102C0E2
S113008005900D92A834B107D9F727E0A8E4B7E0AA
S113009001C01D92A737B207E1F70E946C040C94CB
S11300A0050C0C9400009B016A307105ECF0CB0147
S11300B06AE070E00E94DD0BAB01405D5F4FCB0155
S11300C0880F991F660F771F660F771F660F771FBC
S11300D0680F791FC9010E94DD0BC096E6E0F7E0C6
S11300E040838183CF010895205D3F4F20930A0709
S11300F089E097E00895CF92DF92EF92FF920F93F9
S11301001F93CF93DF938C0160E08FE497E00E940C
S113011000037C0161E08FE497E00E9400036C011E
S113012062E08FE497E00E940003BC01C8010E94D2
S11301305300FC012081CCE0D7E02C8381818D83A6
S1130140B601C8010E945300FC0120812F838181E4
S11301508887B701C8010E945300FC0120812A87C7
S113016081818B879E0140E060E089E497E00E94F2
S113017049042EE137E040E061E089E497E00E9421
S11301804904FFEF29E688E1F15020408040E1F77F
S113019000C00000329BB8CFDF91CF911F910F9127
S11301A0FF90EF90DF90CF900895AF92BF92CF92DF
S11301B0DF92EF92FF920F931F93CF93DF93CDB70C
S11301C0DEB763970FB6F894DEBF0FBECDBF8CE0E9
S11301D0EAEFF6E0DE01189601900D928A95E1F7B8
S11301E089E497E00E94360423E237E044E060E0CB
S11301F089E497E00E9449042FEF84E39CE02150B6
S113020080409040E1F700C0000000E0E12CF12CB8
S1130210A12CB12CC12CD12C073008F01CC188E4CE
S113022097E00E944403182F813099F4E02FF0E006
S1130230EE0FFF1F81E090E08C0F9D1FE80FF91F68
S113024047812CE237E060E089E497E00E944904AA
S1130250C1C0823099F4E02FF0E0EE0FFF1F81E07F
S113026090E08C0F9D1FE80FF91F47812EE237E0C5
S113027060E089E497E00E944904ACC0833099F4BB
S1130280E02FF0E0EE0FFF1F81E090E08C0F9D1F48
S1130290E80FF91F478120E337E060E089E497E045
S11302A00E94490497C0843099F4E02FF0E0EE0FE7
S11302B0FF1F81E090E08C0F9D1FE80FF91F47811D
S11302C022E337E060E089E497E00E94490482C0B9
S11302D0853099F4E02FF0E0EE0FFF1F81E090E00D
S11302E08C0F9D1FE80FF91F478124E337E060E07E
S11302F089E497E00E9449046DC0863099F4E02FA8
S1130300F0E0EE0FFF1F81E090E08C0F9D1FE80FDF
S1130310F91F478126E337E060E089E497E00E9413
S1130320490458C0873099F4E02FF0E0EE0FFF1F26
S113033081E090E08C0F9D1FE80FF91F478128E3AF
S113034037E060E089E497E00E94490443C08830C4
S113035099F4E02FF0E0EE0FFF1F81E090E08C0FA6
S11303609D1FE80FF91F47812AE337E060E089E425
S113037097E00E9449042EC0893099F4E02FF0E000
S1130380EE0FFF1F81E090E08C0F9D1FE80FF91F17
S113039047812CE337E060E089E497E00E94490458
S11303A019C08B30A1F4E02FF0E0EE0FFF1F81E0C5
S11303B090E08C0F9D1FE80FF91F47812AE237E078
S11303C060E089E497E00E94490410E003C0329B96
S11303D026CF08E001110FC0812F90E09C01220F6D
S11303E0331F880F991F880F991F880F991F820F39
S11303F0931FE80EF91E013011F4E10EF11C0230D6
S113040079F4812F90E09C01220F331F880F991FEC
S1130410880F991F880F991F820F931FA80EB91E6A
S1130420033011F4A10EB11C043079F4812F90E053
S11304309C01220F331F880F991F880F991F880F63
S1130440991F820F931FC80ED91E053011F4C10ED7
S1130450D11C0F5FE1CEB7018FE497E00E94260321
S1130460182FB5018FE497E00E942603082FB601E8
S11304708FE497E00E94260389830A831B8387E025
S11304808C8380E28D8386E08E8381E28F8389E48E
S113049097E00E943604BE016F5F7F4F8FE497E0C0
S11304A00E94B7022EE337E040E060E089E497E081
S11304B00E9449049FEF24E38CE091502040804047
S11304C0E1F700C0000089E497E00E9436046396D7
S11304D00FB6F894DEBF0FBECDBFDF91CF911F9151
S11304E00F91FF90EF90DF90CF90BF90AF90089561
S11304F088E48093B80084E08093BC001092B90033
S1130500089584EA8093BC008091BC008823E4F7BA
S1130510089580ED8093BB0084E88093BC008091B3
S1130520BC008823E4F7089581ED8093BB0084E840
S11305308093BC008091BC008823E4F70895609305
S1130540BB0084E88093BC008091BC008823E4F75E
S1130550089584E88093BC008091BC008823E4F76C
S11305608091BB00089584E98093BC0008950F93A3
S11305701F93CF93DF938C01EB010E947802C80193
S11305800E948102C8010E94890260E0C8010E94A1
S11305909F026881C8010E949F026981C8010E946C
S11305A09F026A81C8010E949F026B81C8010E9458
S11305B09F026C81C8010E949F026D81C8010E9444
S11305C09F026E81C8010E949F02C8010E94B3026B
S11305D0DF91CF911F910F910895262F2F7062956F
S11305E06F7070E0CB01880F991F660F771F660F3D
S11305F0771F660F771F860F971F820F911D08952F
S11306001F93CF93DF93EC01162F0E948102CE013A
S11306100E948902612FCE010E949F02CE010E9496
S1130620B302CE010E948102CE010E949402CE0147
S11306300E94A902182FCE010E94B302612FCE019D
S11306400E94ED02DF91CF911F9108959B016A30C2
S11306507105C4F0CB016AE070E00E94DD0B462F07
S11306604295407F862F972F880F991FBC01660FF4
S1130670771F660F771F680F791FC9010E94DD0B72
S1130680842B0895862F08958BB18F608BB980E0F9
S1130690833080F59AB190789AB99AB120E430E029
S11306A0082E02C0359527950A94E2F7292B2AB91A
S11306B090E09430E8F429B148E050E0092E02C0FB
S11306C0559547950A94E2F730E024233523232BEC
S11306D069F429B130E024233523232BD1F3292FC6
S11306E0220F920F980F81E0890F08959F5FE1CF49
S11306F08F5FCECF8FEF089525B1962F907F892FEE
S113070090E09595879595958795922F937C892B65
S113071085B985B18E7F85B985B1826085B985E05B
S11307208A95F1F7000085B18D7F85B98FE891E056
S11307300197F1F700C0000085B16F7070E0660F9B
S1130740771F660F771F837C682B65B985B182603C
S113075085B995E09A95F1F7000085B18D7F85B94B
S11307608FE99FE00197F1F700C000000895CF934F
S1130770DF93EC018FEF84B98FE39CE90197F1F7E4
S113078000C0000062E0CE010E947C0368E2CE015A
S11307900E947C036CE0CE010E947C0366E0CE01E3
S11307A00E947C0361E0CE010E947C038FE99FE0FC
S11307B00197F1F700C00000DF91CF91089525B1B2
S11307C0962F907F892F90E095958795959587959D
S11307D0922F937C892B85B985B1816085B985B1C8
S11307E0826085B982E08A95F1F700C085B18D7F7A
S11307F085B98FE891E00197F1F700C0000085B159
S11308006F7070E0660F771F660F771F837C682B0D
S113081065B985B1826085B992E09A95F1F700C017
S113082085B18D7F85B98FE99FE00197F1F700C00D
S113083000000895EF92FF920F931F93CF93DF93DD
S11308407C018B01C0E0D0E0F801EC0FFD1F60815A
S1130850662329F0C7010E94DF032196F5CFDF91BB
S1130860CF911F910F91FF90EF900895CF93DF9355
S1130870EC0161E00E947C038FE99FE00197F1F7AE
S113088000C0000060E8CE010E947C03DF91CF919C
S113089008950F931F93CF93DF938C01E9016111A6
S11308A008C0403130F44F70642F60680E947C03AC
S11308B00AC0613041F4403130F44F70642F606CF1
S11308C0C8010E947C03BE01C8010E941A04DF9182
S11308D0CF911F910F91089585E597E00E94B7038A
S11308E084E597E00E94850484E597E00E94F2067F
S11308F084E597E00E94D10584E597E00E946606AE
S113090084E597E00E940B07EFCF809161079091F7
S11309106207009749F481E797E00E94360483E672
S113092097E00E947B00089581309105C1F581E72D
S113093097E00E94360460915F0770916007660F2C
S1130940771F62957295707F7627607F7627605B4C
S11309507D4F81E797E00E941A0460EC81E797E0FD
S11309600E947C0360915F0770916007660F771F98
S113097062957295707F7627607F7627605A7D4FE7
S113098081E797E00E941A0480E197E2009709F456
S113099007C1E8ECF0E03197F1F70197F7CF21E0D8
S11309A0029709F020E080915F079091600731E0A1
S11309B0009709F030E0332339F0222329F081E74E
S11309C097E00E943604089531E08130910509F0E2
S11309D030E03323D1F12223C1F181E797E00E9473
S11309E0360460915D0770915E07660F771F62950C
S11309F07295707F7627607F762760557E4F81E7FA
S1130A0097E00E941A0460EC81E797E00E947C035F
S1130A1060915D0770915E07660F771F629572950E
S1130A20707F7627607F762760547E4F81E797E05A
S1130A300E941A0480E197E2009709F4B1C0E8EC3F
S1130A40F0E03197F1F70197F7CF31E0823091056B
S1130A5009F030E0332339F0222329F083E697E0CC
S1130A600E94D500089531E08330910509F030E00B
S1130A70332309F46EC0222309F46BC081E797E0A5
S1130A800E94360460915B0770915C07660F771FC4
S1130A9062957295707F7627607F7627605F7E4FC0
S1130AA081E797E00E941A0460EC81E797E00E94D6
S1130AB07C0360915B0770915C07660F771F6295FA
S1130AC07295707F7627607F7627605E7E4F81E720
S1130AD097E00E941A0480E197E2009731F0E8EC75
S1130AE0F0E03197F1F70197F8CF80915B0790918F
S1130AF05C07009739F460E070E085E697E00E94B7
S1130B005C0908958130910539F461E070E085E66F
S1130B1097E00E945C0908958230910539F462E0FF
S1130B2070E085E697E00E945C09089583309105A2
S1130B3039F463E070E085E697E00E945C0908956B
S1130B40049771F564E070E085E697E00E945C0923
S1130B50089531E0049709F030E0332309F12223AA
S1130B60F9F081E797E00E94360460E071E081E7E4
S1130B7097E00E941A0460EC81E797E00E947C03EE
S1130B8060E071E081E797E00E941A0480E197E257
S1130B90009731F0E8ECF0E03197F1F70197F8CFE6
S1130BA00895AC01309B91C0E0916107F091620718
S1130BB091E0E130F10509F090E020915F07309178
S1130BC0600781E02115310509F080E0BA0188232E
S1130BD061F0992351F084E090E090936007809352
S1130BE05F07CA010E948504089581E0211531053B
S1130BF009F480E0882361F0992351F021503109F0
S1130C003093600720935F07CB010E948504089509
S1130C1041E0329709F040E091E02130310509F0DC
S1130C2090E09423E0915D07F0915E0781E03097B6
S1130C3009F080E0992361F0882351F084E090E08A
S1130C4090935E0780935D07CB010E94850408950D
S1130C5081E0309709F480E0992359F0882349F022
S1130C603197F0935E07E0935D07CB010E94850402
S1130C70089581E02330310509F080E04823809114
S1130C805B0790915C0721E0009709F020E0442382
S1130C9061F0222351F084E090E090935C0780930C
S1130CA05B07CB010E948504089521E0009709F4B5
S1130CB020E0442351F0222341F0019790935C07F4
S1130CC080935B07CB010E9485040895319B89C002
S1130CD0E0916107F091620751E0E130F10509F01C
S1130CE050E020915F073091600741E024303105E6
S1130CF009F040E0BC01442349F0552339F0109237
S1130D00600710925F070E948504089581E02430F3
S1130D10310509F480E0882361F0552351F02F5FF9
S1130D203F4F3093600720935F07CB010E948504F7
S1130D30089541E0329709F040E091E02130310517
S1130D4009F090E09423A0915D07B0915E0781E0E3
S1130D50A430B10509F080E0992351F0882341F0D3
S1130D6010925E0710925D07CB010E9485040895DE
S1130D70E0915B07F0915C0781E0E430F10509F450
S1130D8080E0992359F0882349F01196B0935E07C7
S1130D90A0935D07CB010E948504089591E0233060
S1130DA0310509F090E0492391E0E430F10509F0C0
S1130DB090E0442351F0992341F010925C07109283
S1130DC05B07CB010E9485040895882351F04423D6
S1130DD041F03196F0935C07E0935B07CB010E94EE
S1130DE085040895329B16C02091610730916207F3
S1130DF02230310539F410926207109261070E9483
S1130E00850408952F5F3F4F309362072093610755
S1130E100E9485040895339B16C020916107309188
S1130E2062072115310539F41092620710926107A7
S1130E300E9485040895215031093093620720935C
S1130E4061070E94850408954F925F926F927F928A
S1130E508F929F92AF92BF92CF92DF92EF92FF92C6
S1130E600F931F93CF93DF9300D000D0CDB7DEB79D
S1130E706A017B014801590120E030E0A901C70162
S1130E80B6010E940C0A882309F4B0C0A701960198
S1130E9060E070E080E89FE30E94110A20E030E007
S1130EA04AE754E40E94700B6B017C019B01AC0186
S1130EB0C501B4010E94110A0E94830A2B013C015E
S1130EC020E030E040E05FE3C701B6010E94700B10
S1130ED069837A838B839C838AB180688AB9812CE5
S1130EE0912C540184149504A604B7040CF0B8C0E2
S1130EF020E030E04AEF54E469817A818B819C815F
S1130F000E94700B6B017C0120E030E040E85FE35D
S1130F100E940C0A88232CF120E03FEF4FE757E4AE
S1130F20C701B6010E946B0B1816B4F420E030E040
S1130F3040E251E469817A818B819C810E94700B2B
S1130F400E948A0A6115710589F088EC90E0019786
S1130F50F1F761507109F6CFC701B6010E948A0A00
S1130F6002C061E070E0CB010197F1F78BB18068BA
S1130F708BB920E030E040E85FE3C701B6010E948E
S1130F800C0A88232CF120E03FEF4FE757E4C70118
S1130F90B6010E946B0B1816B4F420E030E040E276
S1130FA051E469817A818B819C810E94700B0E943B
S1130FB08A0A6115710589F088EC90E00197F1F7D0
S1130FC061507109F6CFC701B6010E948A0A02C0B6
S1130FD061E070E0CB010197F1F78BB18F778BB9AA
S1130FE08FEF881A980AA80AB80A7CCF20E030E06C
S1130FF04AEF54E4C501B4010E94700B6B017C01FB
S113100020E030E040E85FE30E940C0A88231CF1F2
S113101020E03FEF4FE757E4C701B6010E946B0B96
S11310201816A4F420E030E040E251E4C501B40114
S11310300E94700B0E948A0A6115710589F088EC80
S113104090E00197F1F761507109F6CFC701B6013D
S11310500E948A0A02C061E070E0CB010197F1F7B7
S11310600F900F900F900F90DF91CF911F910F91E0
S1131070FF90EF90DF90CF90BF90AF909F908F90B4
S11310807F906F905F904F9008952F923F924F9270
S11310905F926F927F928F929F92AF92BF92CF9204
S11310A0DF92EF92FF920F931F93CF93DF93CDB70D
S11310B0DEB729970FB6F894DEBF0FBECDBF9F836E
S11310C08E832B011A01390180E090E0998788878B
S11310D0E885F985E615F7050CF0D5C07F01EE0C1F
S11310E0FF1C6101CE0CDF1CF60160817181072EAB
S11310F0000C880B990B0E94BB0A4B015C01F201A6
S1131100EE0DFF1D60817181072E000C880B990B79
S11311100E94BB0AAB01BC01950184018E819F81B1
S11311200E942407F60160817181072E000C880B50
S1131130990B0E94BB0A6B017C012BEA3AEA4AE252
S113114050E40E94700B4B015C01A7019601C7019A
S1131150B6010E94A00969837A838B839C8320E073
S113116030E040E85FE3C501B4010E940C0A882323
S11311700CF46AC020E03FEF4FE757E469817A81BD
S11311808B819C810E946B0B18160CF043C020E0ED
S113119030E04AE754E4C701B6010E94110A4B014A
S11311A05C0120E030E04AEF54E40E94700B6B01D4
S11311B07C0120E030E040E85FE30E940C0A8823D1
S11311C01CF120E03FEF4FE757E4C701B6010E944E
S11311D06B0B1816A4F420E030E040E251E4C501A2
S11311E0B4010E94700B0E948A0A6115710579F19D
S11311F088EC90E00197F1F761507109F6CFC701CF
S1131200B6010E948A0A02C061E070E0CB01019736
S1131210F1F71DC020E030E04FE753E4C501B4010D
S11312200E946B0B181654F469817A818B819C811E
S11312300E948A0ACB010197F1F70CC0C501B401E1
S11312400E948A0A6D8303C091E09D8300C08D8152
S11312508A95F1F7329908C0309908C0319908C0CD
S1131260339B08C081E007C081E005C081E003C072
S113127081E001C080E0811106C0888599850196CE
S11312809987888725CF29960FB6F894DEBF0FBEBD
S1131290CDBFDF91CF911F910F91FF90EF90DF9021
S11312A0CF90BF90AF909F908F907F906F905F9002
S11312B04F903F902F9008956115710559F4209136
S11312C0F8023091F90242EB56E066ED76E00E94B6
S11312D0450808956130710559F42091F602309162
S11312E0F70242E855E06AE176E00E944508089575
S11312F06230710559F42091F4023091F5024AEEFE
S113130054E066E375E00E94450808956330710572
S113131059F42091F2023091F3024AE553E062E27B
S113132074E00E94450808952091F0023091F10282
S11313304AEF52E06AE273E00E944508089550586B
S1131340BB27AA270E94B7090C94310B0E94230BD8
S113135038F00E942A0B20F039F49F3F19F426F448
S11313600C94200B0EF4E095E7FB0C941A0BE92F78
S11313700E94420B58F3BA17620773078407950754
S113138020F079F4A6F50C94640B0EF4E0950B2E82
S1131390BA2FA02D0B01B90190010C01CA01A001C3
S11313A01124FF27591B99F0593F50F4503E68F11E
S11313B01A16F040A22F232F342F4427585FF3CF5F
S11313C0469537952795A795F0405395C9F77EF430
S11313D01F16BA0B620B730B840BBAF09150A1F079
S11313E0FF0FBB1F661F771F881FC2F70EC0BA0FFF
S11313F0621F731F841F48F4879577956795B79587
S1131400F7959E3F08F0B0CF9395880F08F0992781
S1131410EE0F9795879508950E94F60A08F481E0E7
S113142008950E94250A0C94310B0E942A0B58F04F
S11314300E94230B40F029F45F3F29F00C941A0B0F
S113144051110C94650B0C94200B0E94420B68F311
S11314509923B1F3552391F3951B550BBB27AA2769
S113146062177307840738F09F5F5F4F220F331FA3
S1131470441FAA1FA9F335D00E2E3AF0E0E832D06B
S113148091505040E695001CCAF72BD0FE2F29D06E
S1131490660F771F881FBB1F261737074807AB0740
S11314A0B0E809F0BB0B802DBF01FF2793585F4FB5
S11314B03AF09E3F510578F00C941A0B0C94650B8E
S11314C05F3FE4F3983ED4F3869577956795B79597
S11314D0F7959F5FC9F7880F911D9695879597F9A2
S11314E00895E1E0660F771F881FBB1F621773071B
S11314F08407BA0720F0621B730B840BBA0BEE1F30
S113150088F7E09508950E948A0A6894B1110C94B2
S1131510650B08950E944A0B88F09F5798F0B92FE5
S11315209927B751B0F0E1F0660F771F881F991F14
S11315301AF0BA95C9F714C0B13091F00E94640B47
S1131540B1E008950C94640B672F782F8827B85F57
S113155039F0B93FCCF3869577956795B395D9F76C
S11315603EF490958095709561957F4F8F4F9F4F76
S11315700895E89409C097FB3EF490958095709582
S113158061957F4F8F4F9F4F9923A9F0F92F96E9CB
S1131590BB279395F695879577956795B795F11140
S11315A0F8CFFAF4BB0F11F460FF1BC06F5F7F4FDD
S11315B08F4F9F4F16C0882311F096E911C07723EF
S11315C021F09EE8872F762F05C0662371F096E8F8
S11315D0862F70E060E02AF09A95660F771F881FC7
S11315E0DAF7880F9695879597F90895990F00086B
S11315F0550FAA0BE0E8FEEF16161706E807F907E1
S1131600C0F012161306E407F50798F0621B730B7B
S1131610840B950B39F40A2661F0232B242B252BFC
S113162021F408950A2609F4A140A6958FEF811D9F
S1131630811D089597F99F6780E870E060E0089540
S11316409FEF80EC089500240A94161617061806D6
S11316500906089500240A941216130614060506B2
S11316600895092E0394000C11F4882352F0BB0F43
S113167040F4BF2B11F460FF04C06F5F7F4F8F4FA6
S11316809F4F089557FD9058440F551F59F05F3FE1
S113169071F04795880F97FB991F61F09F3F79F090
S11316A087950895121613061406551FF2CF469512
S11316B0F1DF08C0161617061806991FF1CF869594
S11316C07105610508940895E894BB276627772778
S11316D0CB0197F908950E94F60A08F48FEF089554
S11316E00E94830B0C94310B0E94230B38F00E9450
S11316F02A0B20F0952311F00C941A0B0C94200B58
S113170011240C94650B0E94420B70F3959FC1F356
S1131710950F50E0551F629FF001729FBB27F00D9B
S1131720B11D639FAA27F00DB11DAA1F649F6627F0
S1131730B00DA11D661F829F2227B00DA11D621F3F
S1131740739FB00DA11D621F839FA00D611D221FF9
S1131750749F3327A00D611D231F849F600D211DDD
S1131760822F762F6A2F11249F5750409AF0F1F060
S113177088234AF0EE0FFF1FBB1F661F771F881FC9
S113178091505040A9F79E3F510580F00C941A0BDC
S11317900C94650B5F3FE4F3983ED4F386957795FC
S11317A06795B795F795E7959F5FC1F7FE2B880F6F
S11317B0911D9695879597F9089597FB072E16F432
S11317C0009407D077FD09D00E94F10B07FC05D0E7
S11317D03EF4909581959F4F0895709561957F4F44
S11317E00895AA1BBB1B51E107C0AA1FBB1FA61764
S11317F0B70710F0A61BB70B881F991F5A95A9F7B6
S111180080959095BC01CD010895F894FFCF1A
S113180E726573657420616C6C000000000000004A
S113181E676F74000000000000000000000000006C
S113182E6F6B20206261636B0000000000000000FB
S113183E706972617465730000000000000000009E
S113184E6F6B20206261636B0000000000000000DB
S113185E73746172776172730000000000000000FF
S113186E6F6B20206261636B0000000000000000BB
S113187E636F6666696E2064616E636500000000C6
S113188E6F6B20206261636B00000000000000009B
S113189E74616B65206F6E206D65000000000000A2
S11318AE6F6B20206261636B00000000000000007B
S11318BE616C61726D2031000000000000000000B8
S11318CE6F6B20206261636B00000000000000005B
S11318DE616C61726D203200000000000000000097
S11318EE6F6B20206261636B00000000000000003B
S11318FE616C61726D203300000000000000000076
S113190E6F6B20206261636B00000000000000001A
S113191E616C61726D203400000000000000000054
S113192E6F6B20206261636B0000000000000000FA
S113193E616C61726D203500000000000000000033
S113194E6F6B20206261636B0000000000000000DA
S113195E4E657720416C61726D000000000000003E
S113196E6F6B20206261636B0000000000000000BA
S113197E416C6C20416C61726D73000000000000BC
S113198E6F6B20206261636B00000000000000009A
S113199E5365742054696D6500000000000000005A
S11319AE6F6B20206261636B00000000000000007A
S11319BE416C61726D20546F6E6500000000000072
S11319CE6F6B20206261636B00000000000000005A
S11319DE52657365740000000000000000000000F2
S11319EE6F6B20206261636B00000000000000003A
S11319FE1800640026004C0012007D007D007D005E
S1131A0EFA00FA00FA00FA00C8007D007D007D009D
S1131A1E7D007D007D007D00FA00FA00FA00FA00D8
S1131A2EC8007D007D007D007D00E402E4024B02CF
S1131A3EEE01EE019302930293023F033F03700300
S1131A4EDC0370037003700393024B02E402E4029E
S1131A5EE40293029302E4029302BB00BB00BB00B8
S1131A6EBB00BB00BB00BB00BB00BB00BB00BB008C
S1131A7EBB00BB00BB00BB00BB00BB00BB00BB007C
S1131A8EBB00BB00BB00BB00BB00BB00BB00BB006C
S1131A9EBB00BB00BB00BB00BB00BB00BB00BB005C
S1131AAEBB00BB00BB00BB00BB00BB00BB00BB004C
S1131ABEBB00BB00BB00BB00BB00BB00BB00BB003C
S1131ACEBB00BB00BB00BB00BB00BB00BB00BB002C
S1131ADEBB00BB00BB00BB00BB00BB00BB00BB001C
S1131AEEBB00BB00BB00BB00BB00BB00BB00BB000C
S1131AFEBB00BB00BB00BB00BB00BB00BB00BB00FC
S1131B0EBB00BB00BB00BB00BB00BB00BB00BB00EB
S1131B1EBB00BB00BB00BB00BB00BB00BB00BB00DB
S1131B2EBB00D201D201D201D201D201D201D20123
S1131B3ED2014B024B024B024B020B020B020B0265
S1131B4E0B02BA02BA02BA02BA021003100310034D
S1131B5E10031003100310031003100310031003DB
S1131B6E10030B02D201B8015D0188010000880147
S1131B7E4B020B020000D2010000B8010000B801B4
S1131B8EB8010B020000D201B801880100008801DF
S1131B9EA4037003A4037003A40388010000880146
S1131BAEA4037003A4037003A40388010000880136
S1131BBE4B020B020000D2010000B8010000B80174
S1131BCEB8010B020000D201B8018801000088019F
S1131BDEA4037003A4037003A40388010000880106
S1131BEEA4037003A4037003A403F401F401F40129
S1131BFE5E019600F4015E0196008A02F401F4017E
S1131C0EF401F4015E019600F4015E0196008A026D
S1131C1EF401F4012C019600F4014501AF007D009E
S1131C2E7D00FA007701FA00F4014501AF007D0052
S1131C3E7D00FA00F401B801B801B8015D010B0290
S1131C4EB8015D010B02B8010000930293029302E6
S1131C5EBA020B029F015D010B02B8010000700372
S1131C6EB801B80170033F031003E402BA02E402A0
S1131C7E0000D2016E024B022A020B0226010B0255
S1131C8E00007D007D00FA007D007D007D007D005A
S1131C9EFA007D007D007D007D00FA007D007D0050
S1131CAE7D007D0077017D007D007D00FA007D00C2
S1131CBE7D007D007D00FA007D007D007D007D00AD
S1131CCEFA007D007D007D007D0077017D007D00A2
S1131CDE7D00FA007D007D007D007D00FA007D0010
S1131CEE7D007D007D00FA007D007D007D007D007D
S1131CFE7D00FA007D007D007D00FA007D007D00F0
S1131D0EFA007D00FA007D007D007D00FA007D0062
S1131D1E7D007D007D00770177014A018801B801BD
S1131D2EB8010000B801EE010B020B0200000B0219
S1131D3E4B02EE01EE010000B8018801B80100006B
S1131D4E4A018801B801B8010000B801EE010B0286
S1131D5E0B0200000B024B02EE01EE010000B80173
S1131D6E8801B80100004A018801B801B8010000D9
S1131D7EB8010B024B024B0200004B029302BA0253
S1131D8EBA02000093024B029302B8010000B8019C
S1131D9EEE010B020B0200004B029302B80100008D
S1131DAEB8010B02EE01EE0100000B02B801EE01C8
S1131DBE000020032003FA00FA0020032003FA0097
S1131DCEFA00E20420032003FA00FA0020032003A1
S1131DDEFA00FA00E2048801060137015D01880168
S1131DEE060137015D0126015D01E9002601370177
S1131DFE5D01E90037012601060104000500070014
S1131E0E08000A000B005F5F00305F0020202020D6
S1131E1E30303A30303A30302020202020004D45EA
S1131E2E4E550030303A30303A3030003100320006
S1131E3E3300340035003600370038003900546959
S10B1E4E6D652053657400006A
S9030000FC
