S0130000616C61726D5F636C6F636B2E7372656399
S11300000C9434000C9451000C9451000C94510045
S11300100C9451000C9451000C9451000C94510018
S11300200C9451000C9451000C9451000C94510008
S11300300C9451000C9451000C9451000C945100F8
S11300400C9451000C9451000C9451000C945100E8
S11300500C9451000C9451000C9451000C945100D8
S11300600C9451000C94510011241FBECFEFD8E022
S1130070DEBFCDBF17E0A0E0B1E0EAEAFFE102C0D5
S113008005900D92A838B107D9F727E0A8E8B7E0A2
S113009001C01D92AF3DB207E1F70E94B80A0C946B
S11300A0D30F0C9400009B016A307105ECF0CB0176
S11300B06AE070E00E94AB0FAB01405D5F4FCB0183
S11300C0880F991F660F771F660F771F660F771FBC
S11300D0680F791FC9010E94AB0FC096E6EDF6E0E8
S11300E040838183CF010895205D3F4F2093DA063A
S11300F089ED96E00895CF92DF92EF92FF920F93ED
S11301001F93CF93DF938C0160E08FE897E00E9408
S113011020037C0161E08FE897E00E9420036C01DA
S113012062E08FE897E00E942003BC01C8010E94AE
S11301305300FC012081CCEDD6E02C8381818D839A
S1130140B601C8010E945300FC0120812F838181E4
S11301508887B701C8010E945300FC0120812A87C7
S113016081818B879E0140E060E089E897E00E94EE
S113017069042EEE36E040E061E089E897E00E94F1
S11301806904FFEF29E688E1F15020408040E1F75F
S113019000C00000DF91CF911F910F91FF90EF906D
S11301A0DF90CF9008959F92AF92BF92CF92DF924B
S11301B0EF92FF920F931F93CF93DF93CDB7DEB7E8
S11301C063970FB6F894DEBF0FBECDBF8CE0EAECA8
S11301D0F6E0DE01189601900D928A95E1F789E820
S11301E097E00E9456042FEF36E044E060E089E88F
S11301F097E00E94690428E037E040E061E089E884
S113020097E00E94690400E0912CE12CF12CA12CD0
S1130210B12CC12CD12C073008F02CC188E897E010
S11302200E946403182F813099F4E02FF0E0EE0F60
S1130230FF1F81E090E08C0F9D1FE80FF91F47819D
S113024029E137E060E089E897E00E946904D1C0C1
S1130250823099F4E02FF0E0EE0FFF1F81E090E090
S11302608C0F9D1FE80FF91F47812BE137E060E0F9
S113027089E897E00E946904BCC0833099F4E02FB8
S1130280F0E0EE0FFF1F81E090E08C0F9D1FE80F60
S1130290F91F47812DE137E060E089E897E00E948B
S11302A06904A7C0843099F4E02FF0E0EE0FFF1F3B
S11302B081E090E08C0F9D1FE80FF91F47812FE12B
S11302C037E060E089E897E00E94690492C08530D5
S11302D099F4E02FF0E0EE0FFF1F81E090E08C0F27
S11302E09D1FE80FF91F478121E237E060E089E8AC
S11302F097E00E9469047DC0863099F4E02FF0E015
S1130300EE0FFF1F81E090E08C0F9D1FE80FF91F97
S1130310478123E237E060E089E897E00E946904BE
S113032068C0873099F4E02FF0E0EE0FFF1F81E002
S113033090E08C0F9D1FE80FF91F478125E237E0FD
S113034060E089E897E00E94690453C0883099F41A
S1130350E02FF0E0EE0FFF1F81E090E08C0F9D1F77
S1130360E80FF91F478127E237E060E089E897E06A
S11303700E9469043EC0893099F4E02FF0E0EE0F4A
S1130380FF1F81E090E08C0F9D1FE80FF91F47814C
S113039029E237E060E089E897E00E94690429C017
S11303A08B30A1F4E02FF0E0EE0FFF1F81E090E02E
S11303B08C0F9D1FE80FF91F478126E037E060E0AE
S11303C089E897E00E94690410E013C0339B0CC0D5
S11303D0329B0EC09FEF21EE84E09150204080407C
S11303E0E1F700C000001ACF08E09924939401C0FB
S11303F008E001110FC0812F90E09C01220F331FF0
S1130400880F991F880F991F880F991F820F931FB8
S1130410E80EF91E013011F4E10EF11C023079F4FA
S1130420812F90E09C01220F331F880F991F880FA2
S1130430991F880F991F820F931FA80EB91E0330AE
S113044011F4A10EB11C043079F4812F90E09C01C9
S1130450220F331F880F991F880F991F880F991F28
S1130460820F931FC80ED91E053011F4C10ED11C82
S11304700F5FD1CE911049C098E1E916F10414F050
S1130480E12CF12C2CE3A216B10414F0A12CB12C14
S11304908CE3C816D10414F0C12CD12CB7018FE819
S11304A097E00E944603182FB5018FE897E00E9459
S11304B04603082FB6018FE897E00E94460389831C
S11304C00A831B8387E08C8380E28D8386E08E839E
S11304D081E28F8389E897E00E945604BE016F5F32
S11304E07F4F8FE897E00E94D7022BE237E044E089
S11304F060E089E897E00E94690424E337E040E083
S113050061E089E897E00E946904892D63960FB63B
S1130510F894DEBF0FBECDBFDF91CF911F910F9135
S1130520FF90EF90DF90CF90BF90AF909F90089591
S113053088E48093B80084E08093BC001092B900F2
S1130540089584EA8093BC008091BC008823E4F77A
S1130550089580ED8093BB0084E88093BC00809173
S1130560BC008823E4F7089581ED8093BB0084E800
S11305708093BC008091BC008823E4F708956093C5
S1130580BB0084E88093BC008091BC008823E4F71E
S1130590089584E88093BC008091BC008823E4F72C
S11305A08091BB00089584E98093BC0008950F9363
S11305B01F93CF93DF938C01EB010E949802C80133
S11305C00E94A102C8010E94A90260E0C8010E9421
S11305D0BF026881C8010E94BF026981C8010E94EC
S11305E0BF026A81C8010E94BF026B81C8010E94D8
S11305F0BF026C81C8010E94BF026D81C8010E94C4
S1130600BF026E81C8010E94BF02C8010E94D302CA
S1130610DF91CF911F910F910895262F2F7062952E
S11306206F7070E0CB01880F991F660F771F660FFC
S1130630771F660F771F860F971F820F911D0895EE
S11306401F93CF93DF93EC01162F0E94A102CE01DA
S11306500E94A902612FCE010E94BF02CE010E9416
S1130660D302CE010E94A102CE010E94B402CE01A7
S11306700E94C902182FCE010E94D302612FCE011D
S11306800E940D03DF91CF911F9108959B016A3061
S11306907105C4F0CB016AE070E00E94AB0F462FF5
S11306A04295407F862F972F880F991FBC01660FB4
S11306B0771F660F771F680F791FC9010E94AB0F60
S11306C0842B0895862F08958BB18F608BB980E0B9
S11306D0833080F59AB190789AB99AB120E430E0E9
S11306E0082E02C0359527950A94E2F7292B2AB9DA
S11306F090E09430E8F429B148E050E0092E02C0BB
S1130700559547950A94E2F730E024233523232BAB
S113071069F429B130E024233523232BD1F3292F85
S1130720220F920F980F81E0890F08959F5FE1CF08
S11307308F5FCECF8FEF089525B1962F907F892FAD
S113074090E09595879595958795922F937C892B25
S113075085B985B18E7F85B985B1826085B985E01B
S11307608A95F1F7000085B18D7F85B98FE891E016
S11307700197F1F700C0000085B16F7070E0660F5B
S1130780771F660F771F837C682B65B985B18260FC
S113079085B995E09A95F1F7000085B18D7F85B90B
S11307A08FE99FE00197F1F700C000000895CF930F
S11307B0DF93EC018FEF84B98FE39CE90197F1F7A4
S11307C000C0000062E0CE010E949C0368E2CE01FA
S11307D00E949C036CE0CE010E949C0366E0CE0163
S11307E00E949C0361E0CE010E949C038FE99FE07C
S11307F00197F1F700C00000DF91CF91089525B172
S1130800962F907F892F90E095958795959587955C
S1130810922F937C892B85B985B1816085B985B187
S1130820826085B982E08A95F1F700C085B18D7F39
S113083085B98FE891E00197F1F700C0000085B118
S11308406F7070E0660F771F660F771F837C682BCD
S113085065B985B1826085B992E09A95F1F700C0D7
S113086085B18D7F85B98FE99FE00197F1F700C0CD
S113087000000895EF92FF920F931F93CF93DF939D
S11308807C018B01C0E0D0E0F801EC0FFD1F60811A
S1130890662329F0C7010E94FF032196F5CFDF915B
S11308A0CF911F910F91FF90EF900895CF93DF9315
S11308B0EC0161E00E949C038FE99FE00197F1F74E
S11308C000C0000060E8CE010E949C03DF91CF913C
S11308D008950F931F93CF93DF938C01E901611166
S11308E008C0403130F44F70642F60680E949C034C
S11308F00AC0613041F4403130F44F70642F606CB1
S1130900C8010E949C03BE01C8010E943A04DF9101
S1130910CF911F910F9108958F929F92AF92BF92A2
S1130920CF92DF92EF92FF920F931F93CF93DF93B7
S1130930CDB7DEB72C970FB6F894DEBF0FBECDBF90
S11309405C01FE0131968CE0DF011D928A95E9F786
S113095086E090E09A83898387E090E09C838B8390
S113096089E090E09E838D838AE090E098878F836E
S113097084ED97E00E945604950122953295307FCC
S11309803227207F322720563E4F46E060E084ED38
S113099097E00E94690427E337E040E061E084EDDA
S11309A097E00E946904BFEFE1EEF4E0B150E0404B
S11309B0F040E1F700C0000000E0E12CF12CC12C74
S11309C0D12C812C912C053008F053C183ED97E094
S11309D00E946403182F813099F4E02FF0E0EE0FA9
S11309E0FF1F21E030E02C0F3D1FE20FF31F408179
S11309F029E137E060E084ED97E00E9469040DC1CD
S1130A00823099F4E02FF0E0EE0FFF1F81E090E0D8
S1130A108C0F9D1FE80FF91F40812BE137E060E048
S1130A2084ED97E00E946904F8C0833099F4E02FC4
S1130A30F0E0EE0FFF1FA1E0B0E0AC0FBD1FEA0F26
S1130A40FB1F40812DE137E060E084ED97E00E94D8
S1130A506904E3C0843099F4E02FF0E0EE0FFF1F47
S1130A6021E030E02C0F3D1FE20FF31F40812FE106
S1130A7037E060E084ED97E00E946904CEC08530E1
S1130A8099F4E02FF0E0EE0FFF1F81E090E08C0F6F
S1130A909D1FE80FF91F408121E237E060E084EDFB
S1130AA097E00E946904B9C0863099F4E02FF0E021
S1130AB0EE0FFF1FA1E0B0E0AC0FBD1FEA0FFB1F5C
S1130AC0408123E237E060E084ED97E00E9469040E
S1130AD0A4C0873099F4E02FF0E0EE0FFF1F21E06F
S1130AE030E02C0F3D1FE20FF31F408125E237E079
S1130AF060E084ED97E00E9469048FC0883099F427
S1130B00E02FF0E0EE0FFF1F81E090E08C0F9D1FBF
S1130B10E80FF91F408127E237E060E084ED97E0B9
S1130B200E9469047AC0893099F4E02FF0E0EE0F56
S1130B30FF1FA1E0B0E0AC0FBD1FEA0FFB1F408117
S1130B4029E237E060E084ED97E00E94690465C023
S1130B508B30A1F4E02FF0E0EE0FFF1F21E030E036
S1130B602C0F3D1FE20FF31F408126E037E060E0C9
S1130B7084ED97E00E94690410E04FC0329904C0EC
S1130B80002309F447C044C0339938C0F501EE0F7F
S1130B90FF1FEE0FFF1FEE0FFF1FEB56F84F1182E2
S1130BA01082138212821582148217821682F50132
S1130BB0E295F295F07FFE27E07FFE27DF01A0514A
S1130BC0BE4F8FE517968C93179718968C931897AA
S1130BD01A968C931A971B968C93E056FE4F80E3DB
S1130BE0808381838383848383E090E09093C4072C
S1130BF08093C30708E0992493940FC03FEF81EEDC
S1130C0094E0315080409040E1F700C00000DECE17
S1130C1008E003C008E08824839401110FC0812FE9
S1130C2090E09C01220F331F880F991F880F991F92
S1130C30880F991F820F931FE80EF91E013011F4DB
S1130C40E10EF11C023079F4812F90E09C01220F17
S1130C50331F880F991F880F991F880F991F820FC0
S1130C60931FC80ED91E033011F4C10ED11C0F5F9F
S1130C70AACE91105AC081105AC0A8E1EA16F10414
S1130C8014F0E12CF12CBCE3CB16D10414F0C12CEC
S1130C90D12CF501EE0FFF1FEE0FFF1FEE0FFF1F0C
S1130CA0EB56F84FF182E082D382C28281E090E079
S1130CB09583848397838683B70181ED97E00E94AF
S1130CC05300FC018081850102951295107F102745
S1130CD0007F1027980120513E4F7901D9011796C2
S1130CE08C931797818118968C93808100561E4FA0
S1130CF0D8018C93818111968C93B60181ED97E094
S1130D000E945300FC018081D80113968C931397A1
S1130D10818114968C938081D7011A968C931A97AB
S1130D2081811B968C9381E003C080E001C080E048
S1130D302C960FB6F894DEBF0FBECDBFDF91CF91D6
S1130D401F910F91FF90EF90DF90CF90BF90AF90E5
S1130D509F908F900895CF93DF93CDB7DEB72797F9
S1130D600FB6F894DEBF0FBECDBF27E437E040E0F6
S1130D7060E084ED97E00E94690480E090E08530B3
S1130D80910584F5FC01EE0FFF1FEE0FFF1FEE0F20
S1130D90FF1FEB56F84F11821082138212821582C4
S1130DA0148217821682FC01E295F295F07FFE27E9
S1130DB0E07FFE27DF01A051BE4F2FE517962C934D
S1130DC0179718962C9318971A962C931A971B9684
S1130DD02C93E056FE4F20E3208321832383248336
S1130DE00196CDCF19821A821B8281E08C8386E022
S1130DF08D8388E08E8381E28F83BE016F5F7F4F96
S1130E008AED97E00E94D7022FEF84E39CE0215003
S1130E1080409040E1F700C000001092C407109297
S1130E20C3071092C2071092C1071092C007109214
S1130E30BF071092BE071092BD0727960FB6F8940D
S1130E40DEBF0FBECDBFDF91CF9108958091C30760
S1130E509091C40781309105B9F584ED97E00E9423
S1130E6056046091C1077091C207660F771F62959F
S1130E707295707F7627607F7627605C7D4F84ED66
S1130E8097E00E943A0460EC84ED97E00E949C0392
S1130E906091C1077091C207660F771F62957295C2
S1130EA0707F7627607F7627605B7D4F84ED97E0C7
S1130EB00E943A042FEF84E39CE02150804090404C
S1130EC0E1F700C00000089521E08230910509F0A7
S1130ED020E04091C1075091C20731E0411551050E
S1130EE009F030E0222359F1332349F184ED97E0EE
S1130EF00E9456046091BF077091C0076295729575
S1130F00707F7627607F762760517E4F84ED97E06F
S1130F100E943A0460EC84ED97E00E949C0365E52E
S1130F2077E084ED97E00E943A042FEF84E39CE09D
S1130F30215080409040E1F700C00000089561E036
S1130F40039709F060E06623F1F03323E1F084EDC8
S1130F5097E00E9456048091BF079091C0070E94B9
S1130F608C04882331F081E090E09093C40780934F
S1130F70C3072FEF84E39CE0215080409040E1F7C9
S1130F8000C00000089581E04130510509F080E07F
S1130F908823C1F02223B1F081ED97E00E94D300B1
S1130FA0882331F082E090E09093C4078093C307D4
S1130FB02FEF84E39CE0215080409040E1F700C093
S1130FC00000089581E04230510509F080E0882353
S1130FD009F46DC0222309F46AC084ED97E00E94ED
S1130FE056046091BD077091BE07660F771F629526
S1130FF07295707F7627607F762760507F4F84EDEF
S113100097E00E943A0460EC84ED97E00E949C0310
S11310106091BD077091BE07660F771F6295729548
S1131020707F7627607F7627605F7E4F84ED97E040
S11310300E943A042FEF89E698E1215080409040C5
S1131040E1F700C000008091BD079091BE070097B2
S113105039F460E070E085EC97E00E942A0D089571
S11310608130910539F461E070E085EC97E00E94ED
S11310702A0D08958230910539F462E070E085EC20
S113108097E00E942A0D08958330910539F463E0B6
S113109070E085EC97E00E942A0D0895049719F5F5
S11310A064E070E085EC97E00E942A0D089581E0E9
S11310B04330510509F080E08823A9F0222399F0F8
S11310C084ED97E00E9456040E94AB062FEF84E360
S11310D09CE0215080409040E1F700C00000109255
S11310E0C4071092C3070895309995C02FE788E389
S11310F091E0215080409040E1F700C00000409111
S1131100C3075091C40791E04130510509F090E0C4
S11311102091C1073091C20781E02115310509F002
S113112080E0992359F0882349F083E090E090937C
S1131130C2078093C1070E942607089561E0211524
S1131140310509F460E0662359F0992349F02150F0
S113115031093093C2072093C1070E9426070895DE
S113116091E04230510509F090E089234091BF0796
S11311705091C00761E04115510509F060E08823F2
S113118059F0662349F084E090E09093C00780937F
S1131190BF070E942607089561E04115510509F42F
S11311A060E0882359F0662349F041505109509377
S11311B0C0074093BF070E942607089581E02230AC
S11311C0310509F080E098232091BD073091BE07D6
S11311D081E02115310509F080E0992359F0882335
S11311E049F084E090E09093BE078093BD070E948D
S11311F02607089581E02115310509F480E099233B
S113120051F0882341F0215031093093BE072093D7
S1131210BD070E942607089531999AC02FE788E3F5
S113122091E0215080409040E1F700C000004091DF
S1131230C3075091C40721E04130510509F020E073
S11312408091C1079091C20731E08330910509F084
S113125030E0332349F0222339F01092C207109270
S1131260C1070E942607089531E08330910509F4EF
S113127030E03323A1F0222391F08FE19EE4019723
S1131280F1F700C000008091C1079091C207019658
S11312909093C2078093C1070E942607089531E006
S11312A04230510509F030E021E0009709F020E0D8
S11312B023234091BF075091C00761E0443051059A
S11312C009F060E0222349F0662339F01092C00748
S11312D01092BF070E942607089561E0443051052B
S11312E009F460E0222359F0662349F04F5F5F4F11
S11312F05093C0074093BF070E942607089521E03A
S1131300029709F020E032238091BD079091BE0737
S113131021E08430910509F020E0332349F02223B1
S113132039F01092BE071092BD070E942607089557
S113133021E08430910509F420E0332349F022238D
S113134039F001969093BE078093BD070E9426074B
S1131350089532991EC02FEF81EE94E02150804011
S11313609040E1F700C000008091C3079091C4074A
S11313708330910539F41092C4071092C3070E9478
S11313802607089501969093C4078093C3070E948B
S11313902607089533991DC02FE788E391E0215073
S11313A080409040E1F700C000008091C307909115
S11313B0C407009739F41092C4071092C3070E941F
S11313C02607089501979093C4078093C3070E944A
S11313D0260708957F928F929F92AF92BF92CF92E9
S11313E0DF92EF92FF920F931F93CF93DF9300E06E
S11313F010E0053011050CF0ADC0F801EE0FFF1F31
S1131400EE0FFF1FEE0FFF1FEB56F84FE080F18049
S1131410C280D38084809580A680B78062E08AED04
S113142097E00E942003EC0161E08AED97E00E94BE
S11314302003EC16FD0619F4C816D90679F0F80154
S1131440EE0FFF1FEE0FFF1FEE0FFF1FEB56F84FBF
S113145081E090E0958384831092940762E08AEDA2
S113146097E00E942003EC0161E08AED97E00E947E
S11314702003AC0121E0EC16FD0609F020E091E028
S1131480C416D50609F090E09223292F30E080910C
S1131490940790E0809590958223932321E030E097
S11314A041E08416910411F020E030E0822393237C
S11314B021E030E041E0A416B10411F020E030E076
S11314C028233923232B41F125E637E040E060E06F
S11314D084ED97E00E94690426E737E040E061E08C
S11314E084ED97E00E9469046091BD077091BE0786
S11314F085EC97E00E942A0DF801EE0FFF1FEE0F16
S1131500FF1FEE0FFF1FEB56F84F1582148277244E
S113151073943299A3CF0CC07720C9F084ED97E07F
S11315200E9456041092C4071092C307712C0FC076
S113153084ED97E00E9456041092C4071092C307EA
S11315400E94260781E080939407772473940F5FA9
S11315501F4F4FCFDF91CF911F910F91FF90EF90CD
S1131560DF90CF90BF90AF909F908F907F90089521
S1131570CF93DF93CDB7DEB727970FB6F894DEBFCE
S11315800FBECDBF80E88AB988B18F6088B919824F
S11315901A8280E18B8392E09C838D8388E08E8322
S11315A081E28F83BE016F5F7F4F8AED97E00E94D7
S11315B0D70284ED97E00E94D7038091C3079091EE
S11315C0C407892B31F481ED97E00E947B000E94CF
S11315D0EA090E94A9090E9474080E940C090E9449
S11315E0CA09EBCF4F925F926F927F928F929F9234
S11315F0AF92BF92CF92DF92EF92FF920F931F931D
S1131600CF93DF9300D000D0CDB7DEB76A017B0162
S11316104801590120E030E0A901C701B6010E9448
S1131620DA0D882309F4B0C0A701960160E070E0E8
S113163080E89FE30E94DF0D20E030E04AE754E4B5
S11316400E943E0F6B017C019B01AC01C501B401FA
S11316500E94DF0D0E94510E2B013C0120E030E07E
S113166040E05FE3C701B6010E943E0F69837A83BD
S11316708B839C838AB180688AB9812C912C540114
S113168084149504A604B7040CF0B8C020E030E03C
S11316904AEF54E469817A818B819C810E943E0FD8
S11316A06B017C0120E030E040E85FE30E94DA0D4A
S11316B088232CF120E03FEF4FE757E4C701B60140
S11316C00E94390F1816B4F420E030E040E251E4EF
S11316D069817A818B819C810E943E0F0E94580E01
S11316E06115710589F088EC90E00197F1F761507C
S11316F07109F6CFC701B6010E94580E02C061E01D
S113170070E0CB010197F1F78BB180688BB920E0D1
S113171030E040E85FE3C701B6010E94DA0D882398
S11317202CF120E03FEF4FE757E4C701B6010E94D8
S1131730390F1816B4F420E030E040E251E4698136
S11317407A818B819C810E943E0F0E94580E611504
S1131750710589F088EC90E00197F1F76150710907
S1131760F6CFC701B6010E94580E02C061E070E0D6
S1131770CB010197F1F78BB18F778BB98FEF881A73
S1131780980AA80AB80A7CCF20E030E04AEF54E473
S1131790C501B4010E943E0F6B017C0120E030E0E2
S11317A040E85FE30E94DA0D88231CF120E03FEF5C
S11317B04FE757E4C701B6010E94390F1816A4F485
S11317C020E030E040E251E4C501B4010E943E0F44
S11317D00E94580E6115710589F088EC90E001971C
S11317E0F1F761507109F6CFC701B6010E94580E96
S11317F002C061E070E0CB010197F1F70F900F9008
S11318000F900F90DF91CF911F910F91FF90EF9068
S1131810DF90CF90BF90AF909F908F907F906F900C
S11318205F904F9008952F923F924F925F926F92E4
S11318307F928F929F92AF92BF92CF92DF92EF925C
S1131840FF920F931F93CF93DF93CDB7DEB7299702
S11318500FB6F894DEBF0FBECDBF9F838E832B01DE
S11318601A01390180E090E099878887E885F98535
S1131870E615F7050CF0D5C07F01EE0CFF1C6101E5
S1131880CE0CDF1CF60160817181072E000C880BE1
S1131890990B0E94890E4B015C01F201EE0DFF1DB4
S11318A060817181072E000C880B990B0E94890EB0
S11318B0AB01BC01950184018E819F810E94F20AD3
S11318C0F60160817181072E000C880B990B0E9430
S11318D0890E6B017C012BEA3AEA4AE250E40E9449
S11318E03E0F4B015C01A7019601C701B6010E949E
S11318F06E0D69837A838B839C8320E030E040E81B
S11319005FE3C501B4010E94DA0D88230CF46AC0B8
S113191020E03FEF4FE757E469817A818B819C8116
S11319200E94390F18160CF043C020E030E04AE75B
S113193054E4C701B6010E94DF0D4B015C0120E0B5
S113194030E04AEF54E40E943E0F6B017C0120E03A
S113195030E040E85FE30E94DA0D88231CF120E0C8
S11319603FEF4FE757E4C701B6010E94390F18163D
S1131970A4F420E030E040E251E4C501B4010E9447
S11319803E0F0E94580E6115710579F188EC90E0C4
S11319900197F1F761507109F6CFC701B6010E94B2
S11319A0580E02C061E070E0CB010197F1F71DC051
S11319B020E030E04FE753E4C501B4010E94390F41
S11319C0181654F469817A818B819C810E94580E87
S11319D0CB010197F1F70CC0C501B4010E94580E68
S11319E06D8303C091E09D8300C08D818A95F1F7DA
S11319F0329B08C0309B08C0319B08C0339908C093
S1131A0081E007C081E005C081E003C081E001C03E
S1131A1080E0811106C08885998501969987888719
S1131A2025CF29960FB6F894DEBF0FBECDBFDF9148
S1131A30CF911F910F91FF90EF90DF90CF90BF90C7
S1131A40AF909F908F907F906F905F904F903F905A
S1131A502F9008956115710559F42091C8023091B1
S1131A60C90242E856E066EA76E00E94130C089543
S1131A706130710559F42091C6023091C70242E5E4
S1131A8055E06AEE75E00E94130C0895623071050A
S1131A9059F42091C4023091C5024AEB54E066E047
S1131AA075E00E94130C08956330710559F4209178
S1131AB0C2023091C3024AE253E062EF73E00E9433
S1131AC0130C08952091C0023091C1024AEC52E0F7
S1131AD06AEF72E00E94130C08955058BB27AA279E
S1131AE00E94850D0C94FF0E0E94F10E38F00E94A6
S1131AF0F80E20F039F49F3F19F426F40C94EE0EFE
S1131B000EF4E095E7FB0C94E80EE92F0E94100F09
S1131B1058F3BA17620773078407950720F079F41E
S1131B20A6F50C94320F0EF4E0950B2EBA2FA02DCF
S1131B300B01B90190010C01CA01A0011124FF2776
S1131B40591B99F0593F50F4503E68F11A16F04071
S1131B50A22F232F342F4427585FF3CF4695379570
S1131B602795A795F0405395C9F77EF41F16BA0B35
S1131B70620B730B840BBAF09150A1F0FF0FBB1FE3
S1131B80661F771F881FC2F70EC0BA0F621F731F2C
S1131B90841F48F4879577956795B795F7959E3F89
S1131BA008F0B0CF9395880F08F09927EE0F97951A
S1131BB0879508950E94C40E08F481E008950E9458
S1131BC0F30D0C94FF0E0E94F80E58F00E94F10ED3
S1131BD040F029F45F3F29F00C94E80E51110C9465
S1131BE0330F0C94EE0E0E94100F68F39923B1F397
S1131BF0552391F3951B550BBB27AA27621773072F
S1131C00840738F09F5F5F4F220F331F441FAA1FC2
S1131C10A9F335D00E2E3AF0E0E832D0915050407E
S1131C20E695001CCAF72BD0FE2F29D0660F771F2C
S1131C30881FBB1F261737074807AB07B0E809F012
S1131C40BB0B802DBF01FF2793585F4F3AF09E3F97
S1131C50510578F00C94E80E0C94330F5F3FE4F3D5
S1131C60983ED4F3869577956795B795F7959F5FDA
S1131C70C9F7880F911D9695879597F90895E1E026
S1131C80660F771F881FBB1F621773078407BA0785
S1131C9020F0621B730B840BBA0BEE1F88F7E095E0
S1131CA008950E94580E6894B1110C94330F08954E
S1131CB00E94180F88F09F5798F0B92F9927B751B1
S1131CC0B0F0E1F0660F771F881F991F1AF0BA95DC
S1131CD0C9F714C0B13091F00E94320FB1E00895F9
S1131CE00C94320F672F782F8827B85F39F0B93FEB
S1131CF0CCF3869577956795B395D9F73EF490958F
S1131D008095709561957F4F8F4F9F4F0895E8940C
S1131D1009C097FB3EF490958095709561957F4F2F
S1131D208F4F9F4F9923A9F0F92F96E9BB279395DD
S1131D30F695879577956795B795F111F8CFFAF4ED
S1131D40BB0F11F460FF1BC06F5F7F4F8F4F9F4F1E
S1131D5016C0882311F096E911C0772321F09EE87C
S1131D60872F762F05C0662371F096E8862F70E0E2
S1131D7060E02AF09A95660F771F881FDAF7880FBC
S1131D809695879597F90895990F0008550FAA0B12
S1131D90E0E8FEEF16161706E807F907C0F012167A
S1131DA01306E407F50798F0621B730B840B950B7D
S1131DB039F40A2661F0232B242B252B21F40895D2
S1131DC00A2609F4A140A6958FEF811D811D08956F
S1131DD097F99F6780E870E060E008959FEF80ECDA
S1131DE0089500240A94161617061806090608957D
S1131DF000240A9412161306140605060895092EE3
S1131E000394000C11F4882352F0BB0F40F4BF2B51
S1131E1011F460FF04C06F5F7F4F8F4F9F4F089591
S1131E2057FD9058440F551F59F05F3F71F0479587
S1131E30880F97FB991F61F09F3F79F0879508956C
S1131E40121613061406551FF2CF4695F1DF08C08B
S1131E50161617061806991FF1CF869571056105A8
S1131E6008940895E894BB2766277727CB0197F950
S1131E7008950E94C40E08F48FEF08950E94510F34
S1131E800C94FF0E0E94F10E38F00E94F80E20F020
S1131E90952311F00C94E80E0C94EE0E11240C947E
S1131EA0330F0E94100F70F3959FC1F3950F50E00C
S1131EB0551F629FF001729FBB27F00DB11D639FF8
S1131EC0AA27F00DB11DAA1F649F6627B00DA11D9E
S1131ED0661F829F2227B00DA11D621F739FB00D44
S1131EE0A11D621F839FA00D611D221F749F3327B4
S1131EF0A00D611D231F849F600D211D822F762F4D
S1131F006A2F11249F5750409AF0F1F088234AF029
S1131F10EE0FFF1FBB1F661F771F881F9150504095
S1131F20A9F79E3F510580F00C94E80E0C94330FF2
S1131F305F3FE4F3983ED4F3869577956795B7951C
S1131F40F795E7959F5FC1F7FE2B880F911D969536
S1131F50879597F9089597FB072E16F4009407D0F8
S1131F6077FD09D00E94BF0F07FC05D03EF4909581
S1131F7081959F4F0895709561957F4F0895AA1B91
S1131F80BB1B51E107C0AA1FBB1FA617B70710F060
S1131F90A61BB70B881F991F5A95A9F78095909592
S10D1FA0BC01CD010895F894FFCFB1
S1131FAA312E474F540000000000000000000000DA
S1131FBA4F4B2020202020202020202020202000D9
S1131FCA322E50495241544553000000000000008B
S1131FDA4F4B2020202020202020202020202000B9
S1131FEA332E53544152574152530000000000000B
S1131FFA4F4B202020202020202020202020200099
S113200A342E415354524F4E4F4D49410000000063
S113201A4F4B202020202020202020202020200078
S113202A352E54414B4520494E204D4500000000B1
S113203A4F4B202020202020202020202020200058
S113204A30303A3030000000000000000000000088
S113205A30303A3030000000000000000000000078
S113206A30303A3030000000000000000000000068
S113207A30303A3030000000000000000000000058
S113208A30303A3030000000000000000000000048
S113209A416C61726D31205F5F3A5F5F000000003E
S11320AA416C61726D32205F5F3A5F5F000000002D
S11320BA416C61726D33205F5F3A5F5F000000001C
S11320CA416C61726D34205F5F3A5F5F000000000B
S11320DA416C61726D35205F5F3A5F5F00000000FA
S11320EA312E53657420416C61726D7300000000D7
S11320FA4F4B2020202020202020204241434B0007
S113210A322E5365742054696D6500000000000086
S113211A4F4B2020202020202020204241434B00E6
S113212A332E416C61726D20546F6E65000000009D
S113213A4F4B2020202020202020204241434B00C6
S113214A342E52657365740000000000000000001C
S113215A4F4B2020202020202020204241434B00A6
S113216A1800640026004C0012007D007D007D00EA
S113217AFA00FA00FA00FA00C8007D007D007D002A
S113218A7D007D007D007D00FA00FA00FA00FA0065
S113219AC8007D007D007D007D00E402E4024B025C
S11321AAEE01EE019302930293023F033F0370038D
S11321BADC0370037003700393024B02E402E4022B
S11321CAE40293029302E4029302BB00BB00BB0045
S11321DABB00BB00BB00BB00BB00BB00BB00BB0019
S11321EABB00BB00BB00BB00BB00BB00BB00BB0009
S11321FABB00BB00BB00BB00BB00BB00BB00BB00F9
S113220ABB00BB00BB00BB00BB00BB00BB00BB00E8
S113221ABB00BB00BB00BB00BB00BB00BB00BB00D8
S113222ABB00BB00BB00BB00BB00BB00BB00BB00C8
S113223ABB00BB00BB00BB00BB00BB00BB00BB00B8
S113224ABB00BB00BB00BB00BB00BB00BB00BB00A8
S113225ABB00BB00BB00BB00BB00BB00BB00BB0098
S113226ABB00BB00BB00BB00BB00BB00BB00BB0088
S113227ABB00BB00BB00BB00BB00BB00BB00BB0078
S113228ABB00BB00BB00BB00BB00BB00BB00BB0068
S113229ABB00D201D201D201D201D201D201D201B0
S11322AAD2014B024B024B024B020B020B020B02F2
S11322BA0B02BA02BA02BA02BA02100310031003DA
S11322CA1003100310031003100310031003100368
S11322DA10030B02D201B8015D01880100008801D4
S11322EA4B020B020000D2010000B8010000B80141
S11322FAB8010B020000D201B8018801000088016C
S113230AA4037003A4037003A403880100008801D2
S113231AA4037003A4037003A403880100008801C2
S113232A4B020B020000D2010000B8010000B80100
S113233AB8010B020000D201B8018801000088012B
S113234AA4037003A4037003A40388010000880192
S113235AA4037003A4037003A403F401F401F401B5
S113236A5E019600F4015E0196008A02F401F4010A
S113237AF401F4015E019600F4015E0196008A02FA
S113238AF401F4012C019600F4014501AF007D002B
S113239A7D00FA007701FA00F4014501AF007D00DF
S11323AA7D00FA00F401B801B801B8015D010B021D
S11323BAB8015D010B02B801000093029302930273
S11323CABA020B029F015D010B02B80100007003FF
S11323DAB801B80170033F031003E402BA02E4022D
S11323EA0000D2016E024B022A020B0226010B02E2
S11323FA00007D007D00FA007D007D007D007D00E7
S113240AFA007D007D007D007D00FA007D007D00DC
S113241A7D007D0077017D007D007D00FA007D004E
S113242A7D007D007D00FA007D007D007D007D0039
S113243AFA007D007D007D007D0077017D007D002E
S113244A7D00FA007D007D007D007D00FA007D009C
S113245A7D007D007D00FA007D007D007D007D0009
S113246A7D00FA007D007D007D00FA007D007D007C
S113247AFA007D00FA007D007D007D00FA007D00EF
S113248A7D007D007D00770177014A018801B8014A
S113249AB8010000B801EE010B020B0200000B02A6
S11324AA4B02EE01EE010000B8018801B8010000F8
S11324BA4A018801B801B8010000B801EE010B0213
S11324CA0B0200000B024B02EE01EE010000B80100
S11324DA8801B80100004A018801B801B801000066
S11324EAB8010B024B024B0200004B029302BA02E0
S11324FABA02000093024B029302B8010000B80129
S113250AEE010B020B0200004B029302B801000019
S113251AB8010B02EE01EE0100000B02B801EE0154
S113252A000020032003FA00FA0020032003FA0023
S113253AFA00E20420032003FA00FA00200320032D
S113254AFA00FA00E2048801060137015D018801F4
S113255A060137015D0126015D01E9002601370103
S113256A5D01E900370126010601040005000700A0
S113257A08000A000B005F5F00305F002020202063
S113258A30303A30303A30302020202020004D4577
S113259A4E552020202020202020202020200030DA
S11325AA303A30303A3030004F4B2020202020205F
S11325BA202043414E43454C00310032003300345D
S11325CA003500360037003800390054696D65203B
S11325DA536574004F4B004F4B20202020202020AD
S11325EA44454C45544500526573657474696E6775
S11325FA20416C6C004348414E474520202020204E
S113260A4241434B002020202020416C61726D20FE
S113261A20202020200053544F5020202020202006
S10B262A2020202020200000E4
S9030000FC
