:100000000C9434000C9451000C9451000C94510049
:100010000C9451000C9451000C9451000C9451001C
:100020000C9451000C9451000C9451000C9451000C
:100030000C9451000C9451000C9451000C945100FC
:100040000C9451000C9451000C9451000C945100EC
:100050000C9451000C9451000C9451000C945100DC
:100060000C9451000C94510011241FBECFEFD8E026
:10007000DEBFCDBF17E0A0E0B1E0EEEBF1E202C0E1
:1000800005900D92A839B107D9F727E0A8E9B7E0A4
:1000900001C01D92A53FB207E1F70E94C10B0C946D
:1000A000DD100C9400009B016A307105ECF0CB016F
:1000B0006AE070E00E94B510AB01405D5F4FCB017C
:1000C000880F991F660F771F660F771F660F771FC0
:1000D000680F791FC9010E94B510C096E6E0F7E0ED
:1000E00040838183CF010895205D3F4F20930A070D
:1000F00089E097E00895CF92DF92EF92FF920F93FD
:100100001F93CF93DF938C0160E083EA97E00E9416
:100110006E047C0161E083EA97E00E946E046C014A
:1001200062E083EA97E00E946E04BC01C8010E946D
:100130005300FC012081CCE0D7E02C8381818D83AA
:10014000B601C8010E945300FC0120812F838181E8
:100150008887B701C8010E945300FC0120812A87CB
:1001600081818B879E0140E060E08DE997E00E94ED
:10017000B7052EE137E040E061E08DE997E00E94AD
:10018000B705FFEF29E688E1F15020408040E1F714
:1001900000C00000DF91CF911F910F91FF90EF9071
:1001A000DF90CF900895AF92BF92CF92DF92EF92FF
:1001B000FF920F931F93CF93DF93CDB7DEB7639773
:1001C0000FB6F894DEBF0FBECDBF8CE0EAEFF6E0CD
:1001D000DE01189601900D928A95E1F78DE997E07E
:1001E0000E94A4052FE237E044E060E08DE997E04B
:1001F0000E94B7052FEF84E39CE02150804090409F
:10020000E1F700C0000000E0E12CF12CA12CB12CA2
:10021000C12CD12C073008F026C18CE997E00E9450
:10022000B204182F813099F4E02FF0E0EE0FFF1F99
:1002300081E090E08C0F9D1FE80FF91F478128E3B4
:1002400037E060E08DE997E00E94B705CBC08230CF
:1002500099F4E02FF0E0EE0FFF1F81E090E08C0FAB
:100260009D1FE80FF91F47812AE337E060E08DE921
:1002700097E00E94B705B6C0833099F4E02FF0E014
:10028000EE0FFF1F81E090E08C0F9D1FE80FF91F1C
:1002900047812CE337E060E08DE997E00E94B705E5
:1002A000A1C0843099F4E02FF0E0EE0FFF1F81E051
:1002B00090E08C0F9D1FE80FF91F47812EE337E078
:1002C00060E08DE997E00E94B7058CC0853099F415
:1002D000E02FF0E0EE0FFF1F81E090E08C0F9D1FFC
:1002E000E80FF91F478120E437E060E08DE997E0EF
:1002F0000E94B70577C0863099F4E02FF0E0EE0F4A
:10030000FF1F81E090E08C0F9D1FE80FF91F4781D0
:1003100022E437E060E08DE997E00E94B70562C013
:10032000873099F4E02FF0E0EE0FFF1F81E090E0BE
:100330008C0F9D1FE80FF91F478124E437E060E030
:100340008DE997E00E94B7054DC0883099F4E02F01
:10035000F0E0EE0FFF1F81E090E08C0F9D1FE80F93
:10036000F91F478126E437E060E08DE997E00E94BD
:10037000B70538C0893099F4E02FF0E0EE0FFF1F89
:1003800081E090E08C0F9D1FE80FF91F478128E462
:1003900037E060E08DE997E00E94B70523C08B301D
:1003A000A1F4E02FF0E0EE0FFF1F81E090E08C0F52
:1003B0009D1FE80FF91F478126E337E060E08DE9D4
:1003C00097E00E94B70510E00DC0329B0AC09FEF76
:1003D00021EE84E0915020408040E1F700C0000011
:1003E0001CCF08E001110FC0812F90E09C01220F6B
:1003F000331F880F991F880F991F880F991F820F2D
:10040000931FE80EF91E013011F4E10EF11C0230C9
:1004100079F4812F90E09C01220F331F880F991FE0
:10042000880F991F880F991F820F931FA80EB91E5E
:10043000033011F4A10EB11C043079F4812F90E047
:100440009C01220F331F880F991F880F991F880F57
:10045000991F820F931FC80ED91E053011F4C10ECB
:10046000D11C0F5FD7CEB70183EA97E00E949404B6
:10047000182FB50183EA97E00E949404082FB60173
:1004800083EA97E00E94940489830A831B8387E0B0
:100490008C8380E28D8386E08E8381E28F838DE979
:1004A00097E00E94A405BE016F5F7F4F83EA97E04B
:1004B0000E9425042AE437E044E060E08DE997E0FB
:1004C0000E94B70523E537E040E061E08DE997E061
:1004D0000E94B70563960FB6F894DEBF0FBECDBF7E
:1004E000DF91CF911F910F91FF90EF90DF90CF9010
:1004F000BF90AF900895CF92DF92EF92FF920F934B
:100500001F93CF93DF93CDB7DEB72C970FB6F89438
:10051000DEBF0FBECDBFFE0131968CE0DF011D9224
:100520008A95E9F786E090E09A83898387E090E0F6
:100530009C838B8389E090E09E838D838AE090E0AA
:1005400098878F838DE997E00E94A40522E337E026
:1005500046E060E08DE997E00E94B705BFEF21EE2D
:1005600084E0B15020408040E1F700C0000000E08E
:10057000E12CF12CC12CD12C053008F011C18CE9F3
:1005800097E00E94B204182F813099F4E02FF0E038
:10059000EE0FFF1FA1E0B0E0AC0FBD1FEA0FFB1F85
:1005A000408128E337E060E08DE997E00E94B705DD
:1005B000CBC0823099F4E02FF0E0EE0FFF1F81E016
:1005C00090E08C0F9D1FE80FF91F40812AE337E070
:1005D00060E08DE997E00E94B705B6C0833099F4DA
:1005E000E02FF0E0EE0FFF1FA1E0B0E0AC0FBD1F69
:1005F000EA0FFB1F40812CE337E060E08DE997E0D4
:100600000E94B705A1C0843099F4E02FF0E0EE0F0E
:10061000FF1F81E090E08C0F9D1FE80FF91F4081C4
:100620002EE337E060E08DE997E00E94B7058CC0CB
:10063000853099F4E02FF0E0EE0FFF1FA1E0B0E06D
:10064000AC0FBD1FEA0FFB1F408120E437E060E0E4
:100650008DE997E00E94B70577C0863099F4E02FC6
:10066000F0E0EE0FFF1F81E090E08C0F9D1FE80F80
:10067000F91F408122E437E060E08DE997E00E94B5
:10068000B70562C0873099F4E02FF0E0EE0FFF1F4E
:10069000A1E0B0E0AC0FBD1FEA0FFB1F408124E4D6
:1006A00037E060E08DE997E00E94B7054DC08830E3
:1006B00099F4E02FF0E0EE0FFF1F81E090E08C0F47
:1006C0009D1FE80FF91F408126E437E060E08DE9C7
:1006D00097E00E94B70538C0893099F4E02FF0E028
:1006E000EE0FFF1FA1E0B0E0AC0FBD1FEA0FFB1F34
:1006F000408128E437E060E08DE997E00E94B7058B
:1007000023C08B30A1F4E02FF0E0EE0FFF1F81E05B
:1007100090E08C0F9D1FE80FF91F408126E337E022
:1007200060E08DE997E00E94B70510E00DC0329BB4
:100730000AC09FEFA1EEB4E09150A040B040E1F7B5
:1007400000C000001CCF08E001110FC0812F90E015
:100750009C01220F331F880F991F880F991F880F44
:10076000991F820F931FE80EF91E013011F4E10E5C
:10077000F11C023079F4812F90E09C01220F331F8D
:10078000880F991F880F991F880F991F820F931F39
:10079000C80ED91E033011F4C10ED11C0F5FECCE70
:1007A000E8E9F7E0F182E082D382C282CF012C96A1
:1007B0000FB6F894DEBF0FBECDBFDF91CF911F9172
:1007C0000F91FF90EF90DF90CF90089588E4809391
:1007D000B80084E08093BC001092B900089584EAC8
:1007E0008093BC008091BC008823E4F7089580EDDD
:1007F0008093BB0084E88093BC008091BC00882378
:10080000E4F7089581ED8093BB0084E88093BC00F9
:100810008091BC008823E4F708956093BB0084E8CE
:100820008093BC008091BC008823E4F7089584E89D
:100830008093BC008091BC008823E4F78091BB00CA
:10084000089584E98093BC0008950F931F93CF937C
:10085000DF938C01EB010E94E603C8010E94EF03C5
:10086000C8010E94F70360E0C8010E940D0468817E
:10087000C8010E940D046981C8010E940D046A81AB
:10088000C8010E940D046B81C8010E940D046C8197
:10089000C8010E940D046D81C8010E940D046E8183
:1008A000C8010E940D04C8010E942104DF91CF916C
:1008B0001F910F910895262F2F7062956F7070E031
:1008C000CB01880F991F660F771F660F771F660F82
:1008D000771F860F971F820F911D08951F93CF9347
:1008E000DF93EC01162F0E94EF03CE010E94F70365
:1008F000612FCE010E940D04CE010E942104CE0181
:100900000E94EF03CE010E940204CE010E94170450
:10091000182FCE010E942104612FCE010E945B049A
:10092000DF91CF911F9108959B016A307105C4F04A
:10093000CB016AE070E00E94B510462F4295407FDF
:10094000862F972F880F991FBC01660F771F660FA0
:10095000771F680F791FC9010E94B510842B089575
:10096000862F08958BB18F608BB980E0833080F53E
:100970009AB190789AB99AB120E430E0082E02C07A
:10098000359527950A94E2F7292B2AB990E09430FF
:10099000E8F429B148E050E0092E02C0559547958A
:1009A0000A94E2F730E024233523232B69F429B19C
:1009B00030E024233523232BD1F3292F220F920F4C
:1009C000980F81E0890F08959F5FE1CF8F5FCECFB1
:1009D0008FEF089525B1962F907F892F90E0959500
:1009E000879595958795922F937C892B85B985B1AD
:1009F0008E7F85B985B1826085B985E08A95F1F7EA
:100A0000000085B18D7F85B98FE891E00197F1F7FE
:100A100000C0000085B16F7070E0660F771F660F31
:100A2000771F837C682B65B985B1826085B995E0B5
:100A30009A95F1F7000085B18D7F85B98FE99FE028
:100A40000197F1F700C000000895CF93DF93EC0108
:100A50008FEF84B98FE39CE90197F1F700C00000A4
:100A600062E0CE010E94EA0468E2CE010E94EA043C
:100A70006CE0CE010E94EA0466E0CE010E94EA0426
:100A800061E0CE010E94EA048FE99FE00197F1F74F
:100A900000C00000DF91CF91089525B1962F907F7F
:100AA000892F90E09595879595958795922F937CC2
:100AB000892B85B985B1816085B985B1826085B999
:100AC00082E08A95F1F700C085B18D7F85B98FE806
:100AD00091E00197F1F700C0000085B16F7070E000
:100AE000660F771F660F771F837C682B65B985B10A
:100AF000826085B992E09A95F1F700C085B18D7F4B
:100B000085B98FE99FE00197F1F700C000000895D3
:100B1000EF92FF920F931F93CF93DF937C018B0192
:100B2000C0E0D0E0F801EC0FFD1F6081662329F0E2
:100B3000C7010E944D052196F5CFDF91CF911F91FE
:100B40000F91FF90EF900895CF93DF93EC0161E058
:100B50000E94EA048FE99FE00197F1F700C00000CE
:100B600060E8CE010E94EA04DF91CF9108950F93CF
:100B70001F93CF93DF938C01E901611108C04031CD
:100B800030F44F70642F60680E94EA040AC061303C
:100B900041F4403130F44F70642F606CC8010E9402
:100BA000EA04BE01C8010E948805DF91CF911F9120
:100BB0000F9108957F928F929F92AF92BF92CF92A2
:100BC000DF92EF92FF920F931F93CF93DF9300E09A
:100BD00010E08091A9079091AA07081719070CF057
:100BE000A5C0F801EE0FFF1FEE0FFF1FEE0FFF1F56
:100BF000E555F84FE080F180C280D38084809580F5
:100C0000A680B78062E080EF97E00E946E04EC015E
:100C100061E080EF97E00E946E04EC16FD0619F487
:100C2000C816D90679F0F801EE0FFF1FEE0FFF1F6F
:100C3000EE0FFF1FE555F84F81E090E09583848328
:100C40001092A80762E080EF97E00E946E04EC012A
:100C500061E080EF97E00E946E04AC0121E0EC16A9
:100C6000FD0609F020E091E0C416D50609F090E0F9
:100C70009223292F30E08091A80790E080959095ED
:100C80008223932321E030E041E08416910411F0A7
:100C900020E030E08223932321E030E041E0A416FD
:100CA000B10411F020E030E028233923232B31F167
:100CB00026E537E040E060E08AEE97E00E94B70565
:100CC00027E637E040E061E08AEE97E00E94B70552
:100CD00060E070E08BED97E00E94340EF801EE0FBB
:100CE000FF1FEE0FFF1FEE0FFF1FE555F84F158298
:100CF0001482772473943299A5CF0CC0772099F091
:100D00008AEE97E00E94A4051092DA071092D907A4
:100D1000712C09C08AEE97E00E94A40581E08093BF
:100D2000A807772473940F5F1F4F53CFDF91CF91A4
:100D30001F910F91FF90EF90DF90CF90BF90AF90F9
:100D40009F908F907F900895AF92BF92CF92DF9245
:100D5000EF92FF920F931F93CF93DF93CDB7DEB740
:100D60002C970FB6F894DEBF0FBECDBF5C01FE011D
:100D700031968CE0DF011D928A95E9F786E090E0DC
:100D80009A83898387E090E09C838B8389E090E05D
:100D90009E838D838AE090E098878F838AEE97E028
:100DA0000E94A405950122953295307F3227207F3D
:100DB000322720553E4F46E060E08AEE97E00E94E1
:100DC000B70528E737E040E061E08AEE97E00E944F
:100DD000B705BFEFE1EEF4E0B150E040F040E1F7DD
:100DE00000C0000000E0E12CF12CC12CD12C05301A
:100DF00008F047C189EE97E00E94B204182F8130B5
:100E000099F4E02FF0E0EE0FFF1F81E090E08C0FEF
:100E10009D1FE80FF91F408128E337E060E08AEE6C
:100E200097E00E94B70501C1823099F4E02FF0E00D
:100E3000EE0FFF1FA1E0B0E0AC0FBD1FEA0FFB1FDC
:100E400040812AE337E060E08AEE97E00E94B70530
:100E5000ECC0833099F4E02FF0E0EE0FFF1F81E04B
:100E600090E08C0F9D1FE80FF91F40812CE337E0C5
:100E700060E08AEE97E00E94B705D7C0843099F40D
:100E8000E02FF0E0EE0FFF1FA1E0B0E0AC0FBD1FC0
:100E9000EA0FFB1F40812EE337E060E08AEE97E027
:100EA0000E94B705C2C0853099F4E02FF0E0EE0F44
:100EB000FF1F81E090E08C0F9D1FE80FF91F40811C
:100EC00020E437E060E08AEE97E00E94B705ADC00D
:100ED000863099F4E02FF0E0EE0FFF1FA1E0B0E0C4
:100EE000AC0FBD1FEA0FFB1F408122E437E060E03A
:100EF0008AEE97E00E94B70598C0873099F4E02FFA
:100F0000F0E0EE0FFF1F81E090E08C0F9D1FE80FD7
:100F1000F91F408124E437E060E08AEE97E00E9408
:100F2000B70583C0883099F4E02FF0E0EE0FFF1F83
:100F3000A1E0B0E0AC0FBD1FEA0FFB1F408126E42B
:100F400037E060E08AEE97E00E94B7056EC0893016
:100F500099F4E02FF0E0EE0FFF1F81E090E08C0F9E
:100F60009D1FE80FF91F408128E437E060E08AEE1A
:100F700097E00E94B70559C08B30A1F4E02FF0E054
:100F8000EE0FFF1FA1E0B0E0AC0FBD1FEA0FFB1F8B
:100F9000408126E337E060E08AEE97E00E94B705E3
:100FA00010E043C0329B40C0339934C0F501EE0FCE
:100FB000FF1FEE0FFF1FEE0FFF1FE555F84F1182C9
:100FC0001082138212821582148217821682F50112
:100FD000E295F295F07FFE27E07FFE27DF01A0502B
:100FE000BE4F8FE417968C93179786E418968C93D0
:100FF000189719968C93E055FE4F80E38083818388
:101000008383848383E090E09093DA078093D90709
:1010100008E00BC0BFEFE1EEF4E0B150E040F0407B
:10102000E1F700C00000E6CE08E001110FC0812FFB
:1010300090E09C01220F331F880F991F880F991F82
:10104000880F991F820F931FE80EF91E013011F4CB
:10105000E10EF11C023079F4812F90E09C01220F07
:10106000331F880F991F880F991F880F991F820FB0
:10107000931FC80ED91E033011F4C10ED11C0F5F8F
:10108000B6CEF501EE0FFF1FEE0FFF1FEE0FFF1F95
:10109000E555F84FF182E082D382C28281E090E090
:1010A0009583848397838683B70187EE97E00E94B8
:1010B0005300850102951295107F1027007F10279D
:1010C000F801E050FE4F2FE427832EE4208720E232
:1010D0002187DC012C9100551E4FF80120831196C9
:1010E0008C918183B60187EE97E00E945300DC016A
:1010F0002C91F801238311968C9184832C960FB642
:10110000F894DEBF0FBECDBFDF91CF911F910F913D
:10111000FF90EF90DF90CF90BF90AF900895CF9366
:10112000DF934091D9075091DA0741305105B9F565
:101130008AEE97E00E94A4056091D7077091D807C6
:10114000660F771F62957295707F7627607F76278E
:10115000605B7D4F8AEE97E00E94880560EC8AEE26
:1011600097E00E94EA046091D7077091D807660F54
:10117000771F62957295707F7627607F7627605A19
:101180007D4F8AEE97E00E9488052FEF84E39CE074
:10119000215080409040E1F700C000007EC121E076
:1011A0004230510509F020E08091D7079091D8078F
:1011B00031E0009709F030E0332309F46DC02223B9
:1011C00009F46AC08AEE97E00E94A40587EE97E0D2
:1011D0000E947B02EC01E091A907F091AA078881A7
:1011E0009981EE0FFF1FEE0FFF1FEE0FFF1FE5555A
:1011F000F84F918380838A819B819383828381E0EE
:1012000090E095838483978386836881798187EED4
:1012100097E00E945300E091A907F091AA07E29598
:10122000F295F07FFE27E07FFE27DF01A050BE4F42
:101230002FE417962C9317972EE418962C93189753
:1012400020E219962C93DC012C91E055FE4F20836F
:1012500011968C9181836A817B8187EE97E00E9451
:1012600053002091A9073091AA07FC014081F901A0
:10127000E295F295F07FFE27E07FFE27E055FE4FD6
:101280004383DC0111968C9184832F5F3F4F309311
:10129000AA072093A90701C131E08130910509F027
:1012A00030E0222359F1332349F18AEE97E00E947E
:1012B000A4056091D5077091D60762957295707FED
:1012C0007627607F762760507E4F8AEE97E00E94F7
:1012D000880560EC8AEE97E00E94EA0468E877E00F
:1012E0008AEE97E00E948805BFEFE4E3FCE0B1508E
:1012F000E040F040E1F700C00000CFC061E04330C3
:10130000510509F060E06623B1F03323A1F08AEEC5
:1013100097E00E94A4058091D5079091D6070E947E
:10132000A4062FEF84E39CE0215080409040E1F739
:1013300000C00000B2C031E08230910509F030E019
:10134000332381F0222371F087EE97E00E94D300CF
:10135000AFEFB4E3ECE0A150B040E040E1F700C0F3
:1013600000009BC031E08330910509F030E0332369
:1013700009F46DC0222309F46AC08AEE97E00E9446
:10138000A4056091D3077091D407660F771F62950B
:101390007295707F7627607F7627605F7E4F8AEE3A
:1013A00097E00E94880560EC8AEE97E00E94EA04CC
:1013B0006091D3077091D407660F771F629572957D
:1013C000707F7627607F7627605E7E4F8AEE97E09B
:1013D0000E948805FFEF29E688E1F1502040804017
:1013E000E1F700C000008091D3079091D4070097E7
:1013F00039F460E070E08BED97E00E94340E4DC050
:101400008130910539F461E070E08BED97E00E9446
:10141000340E43C08230910539F462E070E08BED08
:1014200097E00E94340E39C08330910539F463E0AF
:1014300070E08BED97E00E94340E2FC0049769F5A1
:1014400064E070E08BED97E00E94340E26C031E03E
:10145000049709F030E0332301F12223F1F08AEE02
:1014600097E00E94A40560E071E08AEE97E00E9498
:10147000880560EC8AEE97E00E94EA0460E071E083
:101480008AEE97E00E9488059FEFA4E3BCE09150AC
:10149000A040B040E1F700C00000DF91CF91089577
:1014A000309993C02FE788E391E02150804090402D
:1014B000E1F700C000004091D9075091DA0721E020
:1014C0004130510509F020E08091D7079091D8076D
:1014D00031E0009709F030E0332359F0222349F03E
:1014E00084E090E09093D8078093D7070E948F08FC
:1014F000089531E0009709F430E0332351F02223BE
:1015000041F001979093D8078093D7070E948F08E6
:10151000089531E04230510509F030E021E081309A
:10152000910509F020E023234091D5075091D6077B
:1015300061E04115510509F060E0222359F066236E
:1015400049F084E090E09093D6078093D5070E94FD
:101550008F08089561E04115510509F460E02223E8
:1015600059F0662349F0415051095093D6074093F2
:10157000D5070E948F08089521E0039709F020E025
:1015800032238091D3079091D40721E0009709F08E
:1015900020E0332359F0222349F084E090E0909337
:1015A000D4078093D3070E948F08089521E0009705
:1015B00009F420E0332349F0222339F00197909376
:1015C000D4078093D3070E948F0808952FE788E3FC
:1015D00091E0215080409040E1F700C00000319937
:1015E0008EC04091D9075091DA0721E04130510572
:1015F00009F020E08091D7079091D80731E084303E
:10160000910509F030E0332349F0222339F010929C
:10161000D8071092D7070E948F08089531E08430D0
:10162000910509F430E03323A1F0222391F08FE1FA
:101630009EE40197F1F700C000008091D7079091D8
:10164000D80701969093D8078093D7070E948F08F8
:10165000089531E04230510509F030E021E0813059
:10166000910509F020E023236091D5077091D607FA
:1016700041E06430710509F040E0222349F0442341
:1016800039F01092D6071092D5070E948F0808955E
:101690004091D3075091D407E1E04430510509F45B
:1016A000E0E0222359F0EE2349F06F5F7F4F709303
:1016B000D6076093D5070E948F08089521E003970D
:1016C00009F020E0322381E04430510509F080E048
:1016D000332349F0882339F01092D4071092D307AE
:1016E0000E948F080895EE2351F0332341F04F5F9D
:1016F0005F4F5093D4074093D3070E948F080895FB
:101700002FE788E391E0215080409040E1F700C04E
:101710000000329915C08091D9079091DA07833083
:10172000910539F41092DA071092D9070E948F08B8
:10173000089501969093DA078093D9070E948F0845
:1017400008952FE788E391E0215080409040E1F731
:1017500000C00000339914C08091D9079091DA0736
:10176000009739F41092DA071092D9070E948F0877
:10177000089501979093DA078093D9070E948F0804
:101780000895CF93DF93CDB7DEB727970FB6F894C0
:10179000DEBF0FBECDBF80E88AB988B18F6088B93F
:1017A00019821A8280E18B8385E08C8386E08D83A9
:1017B00088E08E8381E28F83BE016F5F7F4F80EF71
:1017C00097E00E9425048AEE97E00E94250580910B
:1017D000D9079091DA07892B31F487EE97E00E94C0
:1017E0007B000E94DA050E94800B0E94500A0E9432
:1017F000E60A0E94A10BEBCF4F925F926F927F920D
:101800008F929F92AF92BF92CF92DF92EF92FF9210
:101810000F931F93CF93DF9300D000D0CDB7DEB7E7
:101820006A017B014801590120E030E0A901C701AC
:10183000B6010E94E40E882309F4B0C0A701960106
:1018400060E070E080E89FE30E94E90E20E030E075
:101850004AE754E40E9448106B017C019B01AC01F3
:10186000C501B4010E94E90E0E945B0F2B013C01EF
:1018700020E030E040E05FE3C701B6010E9448107D
:1018800069837A838B839C838AB180688AB9812C2F
:10189000912C540184149504A604B7040CF0B8C02C
:1018A00020E030E04AEF54E469817A818B819C81A9
:1018B0000E9448106B017C0120E030E040E85FE3CB
:1018C0000E94E40E88232CF120E03FEF4FE757E41D
:1018D000C701B6010E9443101816B4F420E030E0AE
:1018E00040E251E469817A818B819C810E94481099
:1018F0000E94620F6115710589F088EC90E00197F4
:10190000F1F761507109F6CFC701B6010E94620F6D
:1019100002C061E070E0CB010197F1F78BB1806804
:101920008BB920E030E040E85FE3C701B6010E94D8
:10193000E40E88232CF120E03FEF4FE757E4C70186
:10194000B6010E9443101816B4F420E030E040E2E3
:1019500051E469817A818B819C810E9448100E94A8
:10196000620F6115710589F088EC90E00197F1F73D
:1019700061507109F6CFC701B6010E94620F02C023
:1019800061E070E0CB010197F1F78BB18F778BB9F4
:101990008FEF881A980AA80AB80A7CCF20E030E0B6
:1019A0004AEF54E4C501B4010E9448106B017C0168
:1019B00020E030E040E85FE30E94E40E88231CF161
:1019C00020E03FEF4FE757E4C701B6010E94431004
:1019D0001816A4F420E030E040E251E4C501B4015F
:1019E0000E9448100E94620F6115710589F088EC11
:1019F00090E00197F1F761507109F6CFC701B60188
:101A00000E94620F02C061E070E0CB010197F1F724
:101A10000F900F900F900F90DF91CF911F910F912A
:101A2000FF90EF90DF90CF90BF90AF909F908F90FE
:101A30007F906F905F904F9008952F923F924F92BA
:101A40005F926F927F928F929F92AF92BF92CF924E
:101A5000DF92EF92FF920F931F93CF93DF93CDB757
:101A6000DEB729970FB6F894DEBF0FBECDBF9F83B8
:101A70008E832B011A01390180E090E099878887D5
:101A8000E885F985E615F7050CF0D5C07F01EE0C69
:101A9000FF1C6101CE0CDF1CF60160817181072EF5
:101AA000000C880B990B0E94930F4B015C01F20113
:101AB000EE0DFF1D60817181072E000C880B990BC4
:101AC0000E94930FAB01BC01950184018E819F811F
:101AD0000E94FC0BF60160817181072E000C880BBF
:101AE000990B0E94930F6B017C012BEA3AEA4AE2C0
:101AF00050E40E9448104B015C01A7019601C70108
:101B0000B6010E94780E69837A838B839C8320E0E0
:101B100030E040E85FE3C501B4010E94E40E882391
:101B20000CF46AC020E03FEF4FE757E469817A8107
:101B30008B819C810E94431018160CF043C020E05A
:101B400030E04AE754E4C701B6010E94E90E4B01B8
:101B50005C0120E030E04AEF54E40E9448106B0141
:101B60007C0120E030E040E85FE30E94E40E88233F
:101B70001CF120E03FEF4FE757E4C701B6010E9498
:101B800043101816A4F420E030E040E251E4C5010F
:101B9000B4010E9448100E94620F6115710579F12D
:101BA00088EC90E00197F1F761507109F6CFC70119
:101BB000B6010E94620F02C061E070E0CB010197A4
:101BC000F1F71DC020E030E04FE753E4C501B40158
:101BD0000E944310181654F469817A818B819C818C
:101BE0000E94620FCB010197F1F70CC0C501B4014F
:101BF0000E94620F6D8303C091E09D8300C08D81C0
:101C00008A95F1F7329B08C0309B08C0319B08C011
:101C1000339908C081E007C081E005C081E003C0BE
:101C200081E001C080E0811106C088859985019618
:101C30009987888725CF29960FB6F894DEBF0FBE07
:101C4000CDBFDF91CF911F910F91FF90EF90DF906B
:101C5000CF90BF90AF909F908F907F906F905F904C
:101C60004F903F902F9008956115710559F4209180
:101C7000F8023091F90242EB56E066ED76E00E9400
:101C80001D0D08956130710559F42091F6023091CF
:101C9000F70242E855E06AE176E00E941D0D0895E2
:101CA0006230710559F42091F4023091F5024AEE48
:101CB00054E066E375E00E941D0D089563307105E0
:101CC00059F42091F2023091F3024AE553E062E2C6
:101CD00074E00E941D0D08952091F0023091F102F0
:101CE0004AEF52E06AE273E00E941D0D08955058D9
:101CF000BB27AA270E948F0E0C9409100E94FB0F8D
:101D000038F00E94021020F039F49F3F19F426F4B5
:101D10000C94F80F0EF4E095E7FB0C94F20FE92F0A
:101D20000E941A1058F3BA176207730784079507C1
:101D300020F079F4A6F50C943C100EF4E0950B2EEF
:101D4000BA2FA02D0B01B90190010C01CA01A0010D
:101D50001124FF27591B99F0593F50F4503E68F168
:101D60001A16F040A22F232F342F4427585FF3CFA9
:101D7000469537952795A795F0405395C9F77EF47A
:101D80001F16BA0B620B730B840BBAF09150A1F0C3
:101D9000FF0FBB1F661F771F881FC2F70EC0BA0F49
:101DA000621F731F841F48F4879577956795B795D1
:101DB000F7959E3F08F0B0CF9395880F08F09927CC
:101DC000EE0F9795879508950E94CE0F08F481E055
:101DD00008950E94FD0E0C9409100E94021058F004
:101DE0000E94FB0F40F029F45F3F29F00C94F20FA2
:101DF00051110C943D100C94F80F0E941A1068F3C6
:101E00009923B1F3552391F3951B550BBB27AA27B3
:101E100062177307840738F09F5F5F4F220F331FED
:101E2000441FAA1FA9F335D00E2E3AF0E0E832D0B5
:101E300091505040E695001CCAF72BD0FE2F29D0B8
:101E4000660F771F881FBB1F261737074807AB078A
:101E5000B0E809F0BB0B802DBF01FF2793585F4FFF
:101E60003AF09E3F510578F00C94F20F0C943D101F
:101E70005F3FE4F3983ED4F3869577956795B795E1
:101E8000F7959F5FC9F7880F911D9695879597F9EC
:101E90000895E1E0660F771F881FBB1F6217730765
:101EA0008407BA0720F0621B730B840BBA0BEE1F7A
:101EB00088F7E09508950E94620F6894B1110C9420
:101EC0003D1008950E94221088F09F5798F0B92F76
:101ED0009927B751B0F0E1F0660F771F881F991F5F
:101EE0001AF0BA95C9F714C0B13091F00E943C10B5
:101EF000B1E008950C943C10672F782F8827B85FC5
:101F000039F0B93FCCF3869577956795B395D9F7B6
:101F10003EF490958095709561957F4F8F4F9F4FC0
:101F20000895E89409C097FB3EF4909580957095CC
:101F300061957F4F8F4F9F4F9923A9F0F92F96E915
:101F4000BB279395F695879577956795B795F1118A
:101F5000F8CFFAF4BB0F11F460FF1BC06F5F7F4F27
:101F60008F4F9F4F16C0882311F096E911C0772339
:101F700021F09EE8872F762F05C0662371F096E842
:101F8000862F70E060E02AF09A95660F771F881F11
:101F9000DAF7880F9695879597F90895990F0008B5
:101FA000550FAA0BE0E8FEEF16161706E807F9072B
:101FB000C0F012161306E407F50798F0621B730BC6
:101FC000840B950B39F40A2661F0232B242B252B47
:101FD00021F408950A2609F4A140A6958FEF811DEA
:101FE000811D089597F99F6780E870E060E008958B
:101FF0009FEF80EC089500240A9416161706180621
:102000000906089500240A941216130614060506FC
:102010000895092E0394000C11F4882352F0BB0F8D
:1020200040F4BF2B11F460FF04C06F5F7F4F8F4FF0
:102030009F4F089557FD9058440F551F59F05F3F2B
:1020400071F04795880F97FB991F61F09F3F79F0DA
:1020500087950895121613061406551FF2CF46955C
:10206000F1DF08C0161617061806991FF1CF8695DE
:102070007105610508940895E894BB2766277727C2
:10208000CB0197F908950E94CE0F08F48FEF0895C1
:102090000E945B100C9409100E94FB0F38F00E9404
:1020A000021020F0952311F00C94F20F0C94F80F0D
:1020B00011240C943D100E941A1070F3959FC1F3E7
:1020C000950F50E0551F629FF001729FBB27F00DE6
:1020D000B11D639FAA27F00DB11DAA1F649F66273B
:1020E000B00DA11D661F829F2227B00DA11D621F8A
:1020F000739FB00DA11D621F839FA00D611D221F44
:10210000749F3327A00D611D231F849F600D211D27
:10211000822F762F6A2F11249F5750409AF0F1F0AA
:1021200088234AF0EE0FFF1FBB1F661F771F881F13
:1021300091505040A9F79E3F510580F00C94F20F4A
:102140000C943D105F3FE4F3983ED4F38695779569
:102150006795B795F795E7959F5FC1F7FE2B880FB9
:10216000911D9695879597F9089597FB072E16F47C
:10217000009407D077FD09D00E94C91007FC05D054
:102180003EF4909581959F4F0895709561957F4F8E
:102190000895AA1BBB1B51E107C0AA1FBB1FA617AE
:1021A000B70710F0A61BB70B881F991F5A95A9F700
:0E21B00080959095BC01CD010895F894FFCF65
:1021BE00726573657420616C6C0000000000000095
:1021CE00474F540000000000000000000000000017
:1021DE004F4B2020202020202020202020202000B7
:1021EE0050495241544553000000000000000000C9
:1021FE004F4B202020202020202020202020200097
:10220E005354415257415253000000000000000049
:10221E004F4B202020202020202020202020200076
:10222E00415354524F4E4F4D4941000000000000A3
:10223E004F4B202020202020202020202020200056
:10224E0054414B4520494E204D45000000000000F2
:10225E004F4B202020202020202020202020200036
:10226E0030303A3030000000000000000000000066
:10227E0030303A3030000000000000000000000056
:10228E0030303A3030000000000000000000000046
:10229E0030303A3030000000000000000000000036
:1022AE0030303A3030000000000000000000000026
:1022BE00416C61726D31204F4646000000000000F7
:1022CE00416C61726D32204F4646000000000000E6
:1022DE00416C61726D33204F4646000000000000D5
:1022EE00416C61726D34204F4646000000000000C4
:1022FE00416C61726D35204F4646000000000000B3
:10230E004E657720416C61726D0000000000000088
:10231E004F4B2020202020202020204241434B00E4
:10232E00416C6C20416C61726D7300000000000006
:10233E004F4B2020202020202020204241434B00C4
:10234E005365742054696D650000000000000000A4
:10235E004F4B2020202020202020204241434B00A4
:10236E00416C61726D20546F6E65000000000000BC
:10237E004F4B2020202020202020204241434B0084
:10238E00526573657400000000000000000000003C
:10239E004F4B2020202020202020204241434B0064
:1023AE001800640026004C0012007D007D007D00A8
:1023BE00FA00FA00FA00FA00C8007D007D007D00E8
:1023CE007D007D007D007D00FA00FA00FA00FA0023
:1023DE00C8007D007D007D007D00E402E4024B021A
:1023EE00EE01EE019302930293023F033F0370034B
:1023FE00DC0370037003700393024B02E402E402E9
:10240E00E40293029302E4029302BB00BB00BB0002
:10241E00BB00BB00BB00BB00BB00BB00BB00BB00D6
:10242E00BB00BB00BB00BB00BB00BB00BB00BB00C6
:10243E00BB00BB00BB00BB00BB00BB00BB00BB00B6
:10244E00BB00BB00BB00BB00BB00BB00BB00BB00A6
:10245E00BB00BB00BB00BB00BB00BB00BB00BB0096
:10246E00BB00BB00BB00BB00BB00BB00BB00BB0086
:10247E00BB00BB00BB00BB00BB00BB00BB00BB0076
:10248E00BB00BB00BB00BB00BB00BB00BB00BB0066
:10249E00BB00BB00BB00BB00BB00BB00BB00BB0056
:1024AE00BB00BB00BB00BB00BB00BB00BB00BB0046
:1024BE00BB00BB00BB00BB00BB00BB00BB00BB0036
:1024CE00BB00BB00BB00BB00BB00BB00BB00BB0026
:1024DE00BB00D201D201D201D201D201D201D2016E
:1024EE00D2014B024B024B024B020B020B020B02B0
:1024FE000B02BA02BA02BA02BA0210031003100398
:10250E001003100310031003100310031003100325
:10251E0010030B02D201B8015D0188010000880191
:10252E004B020B020000D2010000B8010000B801FE
:10253E00B8010B020000D201B80188010000880129
:10254E00A4037003A4037003A40388010000880190
:10255E00A4037003A4037003A40388010000880180
:10256E004B020B020000D2010000B8010000B801BE
:10257E00B8010B020000D201B801880100008801E9
:10258E00A4037003A4037003A40388010000880150
:10259E00A4037003A4037003A403F401F401F40173
:1025AE005E019600F4015E0196008A02F401F401C8
:1025BE00F401F4015E019600F4015E0196008A02B8
:1025CE00F401F4012C019600F4014501AF007D00E9
:1025DE007D00FA007701FA00F4014501AF007D009D
:1025EE007D00FA00F401B801B801B8015D010B02DB
:1025FE00B8015D010B02B801000093029302930231
:10260E00BA020B029F015D010B02B80100007003BC
:10261E00B801B80170033F031003E402BA02E402EA
:10262E000000D2016E024B022A020B0226010B029F
:10263E0000007D007D00FA007D007D007D007D00A4
:10264E00FA007D007D007D007D00FA007D007D009A
:10265E007D007D0077017D007D007D00FA007D000C
:10266E007D007D007D00FA007D007D007D007D00F7
:10267E00FA007D007D007D007D0077017D007D00EC
:10268E007D00FA007D007D007D007D00FA007D005A
:10269E007D007D007D00FA007D007D007D007D00C7
:1026AE007D00FA007D007D007D00FA007D007D003A
:1026BE00FA007D00FA007D007D007D00FA007D00AD
:1026CE007D007D007D00770177014A018801B80108
:1026DE00B8010000B801EE010B020B0200000B0264
:1026EE004B02EE01EE010000B8018801B8010000B6
:1026FE004A018801B801B8010000B801EE010B02D1
:10270E000B0200000B024B02EE01EE010000B801BD
:10271E008801B80100004A018801B801B801000023
:10272E00B8010B024B024B0200004B029302BA029D
:10273E00BA02000093024B029302B8010000B801E6
:10274E00EE010B020B0200004B029302B8010000D7
:10275E00B8010B02EE01EE0100000B02B801EE0112
:10276E00000020032003FA00FA0020032003FA00E1
:10277E00FA00E20420032003FA00FA0020032003EB
:10278E00FA00FA00E2048801060137015D018801B2
:10279E00060137015D0126015D01E90026013701C1
:1027AE005D01E9003701260106010400050007005E
:1027BE0008000A000B005F5F00305F002020202021
:1027CE0030303A30303A30302020202020004D4535
:1027DE004E55202020202020202020202020003098
:1027EE00303A30303A3030003100320033003400AD
:1027FE003500360037003800390054696D652053B6
:10280E006574004F4B002020202020416C61726DBA
:10281E002020202020200053544F50202020202004
:10282E0020202020202020004F4B20202020202060
:10283E002044454C455445004348414E47452020D1
:08284E002020204241434B0011
:00000001FF
