:100000000C9434000C9451000C9451000C94510049
:100010000C9451000C9451000C9451000C9451001C
:100020000C9451000C9451000C9451000C9451000C
:100030000C9451000C9451000C9451000C945100FC
:100040000C9451000C9451000C9451000C945100EC
:100050000C9451000C9451000C9451000C945100DC
:100060000C9451000C94510011241FBECFEFD8E026
:10007000DEBFCDBF11E0A0E0B1E0ECE1F3E002C0F3
:1000800005900D92A234B107D9F721E0A2E4B1E0C6
:1000900001C01D92A834B207E1F70E940E010C9432
:1000A0008C010C9400008BB18F70962F907F892B60
:1000B0008BB98BB18E7F8BB98BB182608BB985E0A8
:1000C0008A95F1F700008BB18D7F8BB98FE891E0B5
:1000D0000197F1F700C000008BB190E1699FB0017A
:1000E00011248F70682B6BB98BB182608BB985E05E
:1000F0008A95F1F700008BB18D7F8BB98FE99FE076
:100100000197F1F700C000000895CF93DF93EC0151
:100110008FEF8AB98FE39CE90197F1F700C00000E7
:1001200062E0CE010E94530068E2CE010E945300BB
:100130006CE0CE010E94530066E0CE010E945300A5
:1001400061E0CE010E9453008FE99FE00197F1F733
:1001500000C00000DF91CF9108958BB18F70962F72
:10016000907F892B8BB98BB181608BB98BB1826009
:100170008BB982E08A95F1F700C08BB18D7F8BB986
:100180008FE891E00197F1F700C000008BB190E19A
:10019000699FB00111248F70682B6BB98BB182609D
:1001A0008BB982E08A95F1F700C08BB18D7F8BB956
:1001B0008FE99FE00197F1F700C000000895EF92EA
:1001C000FF920F931F93CF93DF937C018B01C0E0CD
:1001D000D0E0F801EC0FFD1F6081662329F0C70114
:1001E0000E94AD002196F5CFDF91CF911F910F9125
:1001F000FF90EF900895CF93DF93EC0161E00E94B0
:1002000053008FE99FE00197F1F700C0000060E81C
:10021000CE010E945300DF91CF91089582E491E0D6
:100220000E94850087E084B988E385B91B9922C0C4
:1002300085B1816085B960E071E082E491E00E945F
:10024000DF0060EC82E491E00E94530061E171E024
:1002500082E491E00E94DF002FEF89E698E12150CF
:1002600080409040E1F700C0000082E491E00E94ED
:10027000FB0003C085B18E7F85B91C9922C085B172
:10028000826085B960E071E082E491E00E94DF0065
:1002900060EC82E491E00E94530060E271E082E44D
:1002A00091E00E94DF002FEF89E698E12150804025
:1002B0009040E1F700C0000082E491E00E94FB0062
:1002C00003C085B18D7F85B91D9922C085B1846039
:1002D00085B960E071E082E491E00E94DF0060ECAB
:1002E00082E491E00E94530060E371E082E491E0D7
:1002F0000E94DF002FEF89E698E121508040904076
:10030000E1F700C0000082E491E00E94FB008ECF84
:0C03100085B18B7F85B98ACFF894FFCFB0
:10031C00594F55204841564520505245535345445A
:10032C00005448452052454420425554544F4E00E9
:10033C0054484520424C554520425554544F4E008C
:10034C0054484520475245454E20425554544F4E33
:02035C0000009F
:00000001FF
