S019000041565220432B2B20636F64652066696C652E73726563EE
S11300000C9434000C9451000C9451000C94510045
S11300100C9451000C9451000C9451000C94510018
S11300200C9451000C9451000C9451000C94510008
S11300300C9451000C9451000C9451000C945100F8
S11300400C9451000C9451000C9451000C945100E8
S11300500C9451000C9451000C9451000C945100D8
S11300600C9451000C94510011241FBECFEFD8E022
S1130070DEBFCDBF15E0A0E0B1E0E8E4FCE002C0E3
S113008005900D92AC30B107D9F725E0ACE0B5E0AE
S113009001C01D92A031B207E1F70E9429030C941C
S11300A022060C9400004F925F926F927F928F927F
S11300B09F92AF92BF92CF92DF92EF92FF92CF9333
S11300C0DF9300D000D0CDB7DEB76B017C014901CE
S11300D05A0120E030E0A9010E942904882309F490
S11300E0B0C0A701960160E070E080E89FE30E9441
S11300F02E0420E030E04AE754E40E948D056B01B1
S11301007C019B01AC01C501B4010E942E040E9434
S1130110A0042B013C0120E030E040E05FE3C70194
S1130120B6010E948D0569837A838B839C8387B192
S1130130816087B9812C912C540184149504A60400
S1130140B7040CF0B8C020E030E04AEF54E4698111
S11301507A818B819C810E948D056B017C0120E05A
S113016030E040E85FE30E94290488232CF120E07A
S11301703FEF4FE757E4C701B6010E948805181600
S1130180B4F420E030E040E251E469817A818B816B
S11301909C810E948D050E94A7046115710589F058
S11301A088EC90E00197F1F761507109F6CFC7012F
S11301B0B6010E94A70402C061E070E0CB01019780
S11301C0F1F788B1816088B920E030E040E85FE36E
S11301D0C701B6010E94290488232CF120E03FEFD7
S11301E04FE757E4C701B6010E9488051816B4F416
S11301F020E030E040E251E469817A818B819C8186
S11302000E948D050E94A7046115710589F088EC90
S113021090E00197F1F761507109F6CFC701B6017B
S11302200E94A70402C061E070E0CB010197F1F7DE
S113023088B18E7F88B98FEF881A980AA80AB80AFD
S11302407CCF20E030E04AEF54E4C501B4010E94C1
S11302508D056B017C0120E030E040E85FE30E9403
S1130260290488231CF120E03FEF4FE757E4C7013E
S1130270B6010E9488051816A4F420E030E040E29C
S113028051E4C501B4010E948D050E94A7046115C3
S1130290710589F088EC90E00197F1F761507109DC
S11302A0F6CFC701B6010E94A70402C061E070E066
S11302B0CB010197F1F70F900F900F900F90DF9102
S11302C0CF91FF90EF90DF90CF90BF90AF909F9031
S11302D08F907F906F905F904F9008958F929F9230
S11302E0AF92BF92CF92DF92EF92FF92199B55C0CB
S11302F060910A0170910B01072E000C880B990B79
S11303000E94D8044B015C0120E030E04AEF54E441
S11303100E948D056B017C0120E030E040E85FE342
S11303200E94290488231CF120E03FEF4FE757E4A3
S1130330C701B6010E9488051816A4F420E030E035
S113034040E251E4C501B4010E948D050E94A70456
S11303506115710589F088EC90E00197F1F761501F
S11303607109F6CFC701B6010E94A70402C061E07B
S113037070E0CB010197F1F780910E0590910F0584
S1130380019690930F0580930E0565E070E00E943E
S1130390FA0590930D0580930C05FF90EF90DF9084
S11303A0CF90BF90AF909F908F9008952F923F92DF
S11303B05F926F927F928F929F92AF92BF92CF92F1
S11303C0DF92EF92FF920F931F93CF93DF93CDB7FA
S11303D0DEB728970FB6F894DEBF0FBECDBF1C0161
S11303E08B013A0181E090E09E838D8302C09E835D
S11303F08D83ED81FE81EF2B09F413C180E090E041
S113040098878F83EF81F885E615F70594F77F01C8
S1130410EE0CFF1C6801CE0CDF1CF60160817181BB
S1130420072E000C880B990B0E94D8044B015C0129
S1130430F101EE0DFF1D60817181072E000C880B08
S1130440990B0E94D804A50194010E945300F6015F
S113045060817181072E000C880B990B0E94D804CF
S11304606B017C012BEA3AEA4AE250E40E948D05D2
S11304704B015C01A7019601C701B6010E94BD03AF
S113048069837A838B839C8320E030E040E85FE3D8
S1130490C501B4010E94290488230CF46AC020E039
S11304A03FEF4FE757E469817A818B819C810E94F9
S11304B0880518160CF043C020E030E04AE754E405
S11304C0C701B6010E942E044B015C0120E030E01C
S11304D04AEF54E40E948D056B017C0120E030E07A
S11304E040E85FE30E94290488231CF120E03FEFE9
S11304F04FE757E4C701B6010E9488051816A4F413
S113050020E030E040E251E4C501B4010E948D05D1
S11305100E94A7046115710579F188EC90E00197B8
S1130520F1F761507109F6CFC701B6010E94A70423
S113053002C061E070E0CB010197F1F71DC020E03B
S113054030E04FE753E4C501B4010E948805181652
S113055054F469817A818B819C810E94A704CB0128
S11305600197F1F70CC0C501B4010E94A704562EEF
S113057003C05524539400C0852D8A95F1F7189B28
S11305804AC060910A0170910B01072E000C880B80
S1130590990B0E94D8044B015C0120E030E04AEF43
S11305A054E40E948D056B017C0120E030E040E8BA
S11305B05FE30E942904882334F120E03FEF4FE7F2
S11305C057E4C701B6010E9488051816BCF420E060
S11305D030E040E251E4C501B4010E948D050E945F
S11305E0A70480E090E06115710509F400CF88EC60
S11305F090E00197F1F761507109F3CFC701B6019B
S11306000E94A70402C061E070E0CB010197F1F7FA
S11306101E821D82EECE8F819885019698878F83E6
S1130620F1CE28960FB6F894DEBF0FBECDBFDF9192
S1130630CF911F910F91FF90EF90DF90CF90BF90DB
S1130640AF909F908F907F906F905F903F902F908E
S113065008958CEF84B90E946E01189BFCCF6091C1
S11306600A0170910B01072E000C880B990B0E9454
S1130670D8044B015C0120E030E04AEF54E40E94CE
S11306808D056B017C0120E030E040E85FE30E94CF
S1130690290488231CF120E03FEF4FE757E4C7010A
S11306A0B6010E9488051816A4F420E030E040E268
S11306B051E4C501B4010E948D050E94A70461158F
S11306C0710589F088EC90E00197F1F761507109A8
S11306D0F6CFC701B6010E94A70402C061E070E032
S11306E0CB010197F1F780910C0590910D050097CE
S11306F059F4409108015091090164EC74E088EECA
S113070094E00E94D601A7CF8130910559F440911D
S113071006015091070164E973E08CE294E00E94C1
S1130720D60199CF8230910559F44091040150913A
S113073005016CEF72E088E493E00E94D6018BCF50
S11307408330910559F440910201509103016CE604
S113075071E084E392E00E94D6017DCF049709F012
S11307607ACF40910001509101016CE071E08CE37B
S113077091E00E94D6016FCF5058BB27AA270E9450
S1130780D4030C944E050E94400538F00E9447059E
S113079020F039F49F3F19F426F40C943D050EF42F
S11307A0E095E7FB0C943705E92F0E945F0558F3A9
S11307B0BA17620773078407950720F079F4A6F542
S11307C00C9481050EF4E0950B2EBA2FA02D0B018D
S11307D0B90190010C01CA01A0011124FF27591B82
S11307E099F0593F50F4503E68F11A16F040A22F88
S11307F0232F342F4427585FF3CF469537952795F9
S1130800A795F0405395C9F77EF41F16BA0B620BF7
S1130810730B840BBAF09150A1F0FF0FBB1F661F3E
S1130820771F881FC2F70EC0BA0F621F731F841F81
S113083048F4879577956795B795F7959E3F08F0A7
S1130840B0CF9395880F08F09927EE0F9795879569
S113085008950E94130508F481E008950E9442045B
S11308600C944E050E94470558F00E94400540F044
S113087029F45F3F29F00C94370551110C9482053B
S11308800C943D050E945F0568F39923B1F3552349
S113089091F3951B550BBB27AA276217730784078F
S11308A038F09F5F5F4F220F331F441FAA1FA9F325
S11308B035D00E2E3AF0E0E832D091505040E69513
S11308C0001CCAF72BD0FE2F29D0660F771F881F74
S11308D0BB1F261737074807AB07B0E809F0BB0B67
S11308E0802DBF01FF2793585F4F3AF09E3F51057B
S11308F078F00C9437050C9482055F3FE4F3983E3E
S1130900D4F3869577956795B795F7959F5FC9F763
S1130910880F911D9695879597F90895E1E0660FE4
S1130920771F881FBB1F621773078407BA0720F05D
S1130930621B730B840BBA0BEE1F88F7E0950895C6
S11309400E94A7046894B1110C94820508950E9432
S1130950670588F09F5798F0B92F9927B751B0F0E1
S1130960E1F0660F771F881F991F1AF0BA95C9F72F
S113097014C0B13091F00E948105B1E008950C9447
S11309808105672F782F8827B85F39F0B93FCCF3FA
S1130990869577956795B395D9F73EF490958095AC
S11309A0709561957F4F8F4F9F4F0895E89409C0CC
S11309B097FB3EF490958095709561957F4F8F4F8E
S11309C09F4F9923A9F0F92F96E9BB279395F695A4
S11309D0879577956795B795F111F8CFFAF4BB0F22
S11309E011F460FF1BC06F5F7F4F8F4F9F4F16C086
S11309F0882311F096E911C0772321F09EE8872F10
S1130A00762F05C0662371F096E8862F70E060E0CB
S1130A102AF09A95660F771F881FDAF7880F969544
S1130A20879597F90895990F0008550FAA0BE0E8E8
S1130A30FEEF16161706E807F907C0F0121613069C
S1130A40E407F50798F0621B730B840B950B39F4DC
S1130A500A2661F0232B242B252B21F408950A2642
S1130A6009F4A140A6958FEF811D811D089597F982
S1130A709F6780E870E060E008959FEF80EC089540
S1130A8000240A9416161706180609060895002469
S1130A900A9412161306140605060895092E0394E3
S1130AA0000C11F4882352F0BB0F40F4BF2B11F457
S1130AB060FF04C06F5F7F4F8F4F9F4F089557FDB6
S1130AC09058440F551F59F05F3F71F04795880FB8
S1130AD097FB991F61F09F3F79F08795089512164F
S1130AE013061406551FF2CF4695F1DF08C01616FB
S1130AF017061806991FF1CF8695710561050894AC
S1130B000895E894BB2766277727CB0197F90895C2
S1130B100E94130508F48FEF08950E94A0050C9419
S1130B204E050E94400538F00E94470520F09523A9
S1130B3011F00C9437050C943D0511240C94820596
S1130B400E945F0570F3959FC1F3950F50E0551F08
S1130B50629FF001729FBB27F00DB11D639FAA270E
S1130B60F00DB11DAA1F649F6627B00DA11D661F5D
S1130B70829F2227B00DA11D621F739FB00DA11D7E
S1130B80621F839FA00D611D221F749F3327A00D38
S1130B90611D231F849F600D211D822F762F6A2FD4
S1130BA011249F5750409AF0F1F088234AF0EE0F39
S1130BB0FF1FBB1F661F771F881F91505040A9F766
S1130BC09E3F510580F00C9437050C9482055F3FDD
S1130BD0E4F3983ED4F3869577956795B795F795A2
S1130BE0E7959F5FC1F7FE2B880F911D969587951A
S1130BF097F9089597FB072E16F4009407D077FD14
S1130C0009D00E940E0607FC05D03EF4909581950C
S1130C109F4F0895709561957F4F0895AA1BBB1B44
S1130C2051E107C0AA1FBB1FA617B70710F0A61BE8
S1130C30B70B881F991F5A95A9F780959095BC0109
S10B0C40CD010895F894FFCFE3
S1130C481800640026004C00120020037D007D007B
S1130C587D00FA00FA00FA00FA00C8007D007D0061
S1130C687D007D007D007D007D00FA00FA00FA0019
S1130C78FA00C8007D007D007D007D00E402E402E6
S1130C884B02EE01EE019302930293023F033F03EA
S1130C987003DC0370037003700393024B02E402D5
S1130CA8E402E40293029302E4029302BB00BB0051
S1130CB8BB00BB00BB00BB00BB00BB00BB00BB0050
S1130CC8BB00BB00BB00BB00BB00BB00BB00BB0040
S1130CD8BB00BB00BB00BB00BB00BB00BB00BB0030
S1130CE8BB00BB00BB00BB00BB00BB00BB00BB0020
S1130CF8BB00BB00BB00BB00BB00BB00BB00BB0010
S1130D08BB00BB00BB00BB00BB00BB00BB00BB00FF
S1130D18BB00BB00BB00BB00BB00BB00BB00BB00EF
S1130D28BB00BB00BB00BB00BB00BB00BB00BB00DF
S1130D38BB00BB00BB00BB00BB00BB00BB00BB00CF
S1130D48BB00BB00BB00BB00BB00BB00BB00BB00BF
S1130D58BB00BB00BB00BB00BB00BB00BB00BB00AF
S1130D68BB00BB00BB00BB00BB00BB00BB00BB009F
S1130D78BB00BB00D201D201D201D201D201D201FF
S1130D88D201D2014B024B024B024B020B020B0263
S1130D980B020B02BA02BA02BA02BA021003100317
S1130DA8100310031003100310031003100310039F
S1130DB8100310030B02D201B8015D018801000081
S1130DC888014B020B020000D2010000B8010000A8
S1130DD8B801B8010B020000D201B8018801000073
S1130DE88801A4037003A4037003A403880100000A
S1130DF88801A4037003A4037003A40388010000FA
S1130E0888014B020B020000D2010000B801000067
S1130E18B801B8010B020000D201B8018801000032
S1130E288801A4037003A4037003A40388010000C9
S1130E388801A4037003A4037003A403F401F40158
S1130E48F4015E019600F4015E0196008A02F40141
S1130E58F401F401F4015E019600F4015E019600C8
S1130E688A02F401F4012C019600F4014501AF0053
S1130E787D007D00FA007701FA00F4014501AF0016
S1130E887D007D00FA00F401B801B801B8015D01E4
S1130E980B02B8015D010B02B80100009302930232
S1130EA89302BA020B029F015D010B02B801000014
S1130EB87003B801B80170033F031003E402BA02D7
S1130EC8E4020000D2016E024B022A020B02260140
S1130ED80B0200007D007D00FA007D007D007D008E
S1130EE87D00FA007D007D007D007D00FA007D0014
S1130EF87D007D007D0077017D007D007D00FA0086
S1130F087D007D007D007D00FA007D007D007D0070
S1130F187D00FA007D007D007D007D0077017D0065
S1130F287D007D00FA007D007D007D007D00FA00D3
S1130F387D007D007D007D00FA007D007D007D0040
S1130F487D007D00FA007D007D007D00FA007D00B3
S1130F587D00FA007D00FA007D007D007D00FA0026
S1130F687D007D007D007D00770177014A018801BD
S1130F78B801B8010000B801EE010B020B02000031
S1130F880B024B02EE01EE010000B8018801B80122
S1130F9800004A018801B801B8010000B801EE0157
S1130FA80B020B0200000B024B02EE01EE010000E3
S1130FB8B8018801B80100004A018801B801B801E4
S1130FC80000B8010B024B024B0200004B029302D3
S1130FD8BA02BA02000093024B029302B80100005D
S1130FE8B801EE010B020B0200004B029302B80198
S1130FF80000B8010B02EE01EE0100000B02B8017B
S1131008EE01000020032003FA00FA002003200365
S1131018FA00FA00E20420032003FA00FA0020038D
S11310282003FA00FA00E2048801060137015D0191
S11310388801060137015D0126015D01E9002601E9
S10F104837015D01E900370126010601B3
S9030000FC
