S01300004B4559504144494E5055542E73726563C3
S11300000C9434000C943E000C943E000C943E007E
S11300100C943E000C943E000C943E000C943E0064
S11300200C943E000C943E000C943E000C943E0054
S11300300C943E000C943E000C943E000C943E0044
S11300400C943E000C943E000C943E000C943E0034
S11300500C943E000C943E000C943E000C943E0024
S11300600C943E000C943E0011241FBECFEFD8E048
S1130070DEBFCDBF0E9478000C9494000C94000065
S11300808BB18F608BB980E02FC09AB190789AB908
S11300909AB120E430E0082E02C0359527950A94E1
S11300A0E2F7292B2AB990E01CC029B148E050E0BE
S11300B0092E02C0559547950A94E2F730E02423AF
S11300C03523232B69F429B130E024233523232B52
S11300D0D1F3292F220F920F980F81E0890F0895F1
S11300E09F5F943010F38F5F833078F28FEF089521
S11300F081E084B90E9440008D30E0F711C0E7EA46
S1130100F1E63197F1F700C0000021E025B9E7EAF4
S1130110F1E63197F1F700C0000015B89F5F01C008
S10F012090E0981760F3E6CFF894FFCF4E
S9030000FC
